:100000002EC248C261C246C245C244C243C242C2B5
:1000100041C240C23FC23EC23DC23CC23BC20902D5
:100020005400030100A03209040000010301010093
:100030000921110100012223000705810308000A9C
:10004000090401000103010200092111010001223C
:1000500084000705820308000A0904020001030066
:100060000000092111010001221500070503030802
:10007000000A120110010000000850D8020101001E
:10008000010200011203740069006E0079005F0034
:100090006B00650079000A037A00690061006E0058
:1000A000040309040631FF0974A10109751500262E
:1000B000FF00950875089102C005010902A101859C
:1000C000010901A10005091901290515002501757E
:1000D0000195058102750395018103050109300928
:1000E000311581257F75089502810609381581250E
:1000F0007F35004500750895018106050C0A380218
:100100001581257F750895018106C0C0050109800C
:10011000A1018502150126B700190129B7751095AF
:10012000018100C0050C0901A10185031501269C70
:100130000219012A9C02751095018100C005010970
:1001400006A101050719E029E715002501750195AC
:10015000088102950275082565190029658100C08E
:1001600000000204060A0E12171B20252A2E323622
:10017000383A3C3C3C3D3E404245484C4F53575B2F
:100180005F63666A6D6F727475767676767676766C
:1001900076767777777777777777787878787878EB
:1001A0007878787879797A7B7C7D7E7F8182848586
:1001B00087888A8C8E8F9193949697999A9B9D9E0F
:1001C0009E9FA0A0A1A1A1A1A2A3A5A7AAADB0B4E2
:1001D000B8BCC0C4C8CCD0D4D7DBDDE0E2E3E4E5F2
:1001E000E5E4E2DFDBD6D0C9C2BBB3AAA29991880D
:1001F0008179726C67625F5C5B5A5A595755524FEE
:100200004C48433F3A35302B26211D1814110E0C53
:100210000A0908080809090A0B0C0D0E0F1112141F
:10022000151718191B1C1D1E1F1F20202020202001
:100230001F1F1E1E1D1D1C1B1B1A19181817161612
:1002400015151514141414141413131211100F0E81
:100250000D0C0A0908070604030302010100003916
:10026000393837363432302E2B29262422201E1DD1
:100270001C1B1B1B1B1A191817151412100F0D0B22
:10028000090706040302010100000000000000004D
:10029000000000000000000000000000000000005E
:1002A0000000010102040507080A0D0F1214171AB5
:1002B0001D202326292C2F3234373A3C3E4042431E
:1002C000454647474848484A4C4F53585D63697014
:1002D000777E868D949BA2A8AEB3B7BBBDBFC0C0CE
:1002E000C0C0BFBFBEBEBDBCBCBBBAB9B8B8B7B654
:1002F000B5B4B4B3B3B2B2B2B2B2B2B2B2B3B3B3D2
:10030000B4B4B5B5B6B6B7B7B8B8B8B9B9B9BABA7A
:10031000BABABABABBBCBEC0C2C4C7CACDD0D3D6A3
:10032000D9DCDFE2E4E6E8EAEBECEDEDEDECEAE85F
:10033000E6E3DFDCD7D3CECAC5C0BBB7B2AEABA84D
:10034000A5A3A1A09F9F9E9D9A9794908B86807A4B
:10035000746E67615B55504B46423F3C3B39F3F34B
:10036000F3F3F2F2F1F1F0F0EFEFEEEEEDEDECEC95
:10037000ECECECECEBEAE9E8E7E5E3E2E0DEDCDB21
:10038000D9D8D6D5D4D3D3D2D2D2D0CECAC6C1BB77
:10039000B5AEA79F98918A837D77726E6B68676709
:1003A00067666665646361605E5C5A575552504D7E
:1003B0004B484543403D3B38363432302E2C2B2AB7
:1003C0002928272727272626252422201E1C1A18FD
:1003D0001613110F0D0B090705040302010101019A
:1003E00001020203040405060708090A0B0C0D0E9E
:1003F0000F1010111112121212131416181A1D20B8
:1004000023262A2E3135393C404346484A4C4E4E2D
:100410004F4F5052555A5F646B727A828B939CA5F2
:10042000ADB5BCC3CACFD4D7DADBDCDCDCDDDEDEC5
:10043000E0E1E2E3E5E7E8EAECEDEFF0F2F3F4F512
:10044000F6F6F7F7F7F7F7F7F7F7F6F6F6F6F6F545
:10045000F5F5F5F4F4F4F4F4F3F3F3F3F300112405
:100460001FBECFE5D2E0DEBFCDBF10E0A0E6B0E01A
:10047000EAE9F7E102C005900D92AA36B107D9F773
:1004800020E0AAE6B0E001C01D92A53FB207E1F767
:100490009DD281C9B5CDA82FB92F80E090E041E071
:1004A00050EA609530E009C02D9182279795879595
:1004B00010F084279527305EC8F36F5FA8F3089586
:1004C000EADF8D939D930895CF93CFB7CF93C395D4
:1004D000B39BE9F7B39B0BC0B39B09C0B39B07C0A9
:1004E000B39B05C0B39B03C0B39B01C0D8C00F92A0
:1004F000DF93C091CC00DD27CD52DF4F012EB39B9F
:1005000003C0DF910F90E6CF2F930F931F934F936C
:100510002FEF4F6F06B303FB20F95F933F9350E03B
:100520003BE065C016B30126502953FDC89556B36C
:10053000012703FB25F92F7306B3B1F050271027CD
:1005400013FB26F906B22230F0F000C016B30127E3
:1005500003FB27F90126502906B22430E8F54F772E
:10056000206816B30000F6CF50274F7D206206B2F8
:10057000102F000000C006B300265029102713FBDF
:1005800026F906B2E2CF4F7B06B3206400C0DACF73
:1005900001265029187106B269F14E7F2160012FA2
:1005A00016B328C0002650294D7F06B22260102FB6
:1005B00029C0012650294B7F06B22460012F2DC08F
:1005C00016B301265029477F2860000006B22EC0CE
:1005D0004F7E06B3206130C0422706B34993002600
:1005E0005029102706B24FEF13FB20F9297F16B3CD
:1005F00079F2187159F10126502906B2012703FB3F
:1006000021F9237F06B371F2002650293150D0F032
:1006100006B2102713FB22F9277E16B351F20126EA
:100620005029012703FB06B223F92F7C49F2000071
:1006300006B3102713FB24F90026502906B22F79A0
:1006400039F270CF10E21ABF00271CC03B50319521
:10065000C31BD04010E21ABF0881033C21F10B34C8
:1006600011F12091CA001981110F1213EDCF4A81A7
:10067000441F093669F10D3211F0013E29F74F7020
:1006800009F0042F0093D1003F915F914F911F918A
:100690000F912F91DF910F90CAB7C5FD18CFCF9161
:1006A000CFBFCF9118952091D100222369F31091EB
:1006B000CF001123D1F53430D2F13093CF00209305
:1006C000CB001091CC003BE0311B3093CC002FC00D
:1006D0000091CF0001304CF50AE54F7049F430919C
:1006E000680034FD25C000936800C3EBD0E024C04F
:1006F000423049F03091BE0034FD1AC00093BE0074
:10070000CFEBD0E019C03091E90034FD11C0009367
:10071000E900CAEED0E010C0052710E000C021C0FB
:10072000052710E0C89508BB14C03AE501C032EDBA
:10073000032EC0E0D0E032E017B31861C39A08B3CB
:1007400017BB58E120E84FEF20FF052708BB27958E
:1007500017951C3F28F700004552B0F720FF0527EA
:10076000279508BB17951C3FB8F629913A9561F774
:10077000077E1091D000110F08BBC250D04011F07D
:100780001093CA0010E21ABF086017B3177E402FFB
:10079000477E54E05A95F1F708BB17BB48BB74CFAE
:1007A0009F92AF92BF92CF92DF92EF92FF920F9300
:1007B0001F93CF93DF93982E85E6C82E80E0D82E26
:1007C0009FE6E92E90E0F92E03E610E05B0182E05F
:1007D000A80EB11CEB01E1E09E1609F19E1618F17E
:1007E000F2E09F16C1F021968FEFC81AD80AEFEFFA
:1007F000EE1AFE0A0F5F1F4FAC16BD0661F7DF91C0
:10080000CF911F910F91FF90EF90DF90CF90BF900D
:10081000AF909F900895CE0190D7F60107C0CE010A
:100820008CD7F70103C0CE0188D7F8018083DBCFD6
:10083000CF92DF92EF92FF920F931F93CF93DF93AC
:1008400080E090E082D76C0182E090E07ED77C016E
:1008500084E090E07AD78C0186E090E076D7EC01D6
:1008600088E090E072D72AE0C216D104C1F5EBE02F
:10087000EE16F104A1F50D30110589F52F9779F5E4
:10088000419769F58AE090E058D7809362008BE049
:1008900090E053D7809360008CE090E04ED7809337
:1008A00061006DE070E080E07BDF6FE070E081E090
:1008B00077DF61E170E082E073DF06E810E0C3E11A
:1008C000D0E0CE013AD7F80181938F012196C9314A
:1008D000D105B9F789E190E030D78093A300DF918B
:1008E000CF911F910F91FF90EF90DF90CF900895DF
:1008F000CF93DF93683009F05AC0DC013C9120911E
:1009000084003F3FB1F411963C91313F41F42130D6
:1009100009F04DC010928400DF91CF91F7C0323FB3
:1009200041F4211144C082E080938400DF91CF9193
:10093000FAC021113CC028E0E5E7F0E0DF011D929C
:100940002A95E9F7FC01A5E7B0E081918D9320E0BD
:10095000AD37B207D1F7C0917500D0917600CE3F88
:1009600081E0D80740F4E199FECF60917700709163
:100970007800CE01EFD6CE0102968E3FA1E09A0715
:1009800038F4E199FECF6091790070917A00E2D657
:10099000CE0104968E3FB1E09B0748F4E199FECF6B
:1009A00060917B0070917C00DF91CF91D3C6DF9185
:1009B000CF91089546B321E030E0B90102C0660F3F
:1009C000771F8A95E2F7CB01842308958DC190911A
:1009D000A40080916C00892780936C0093FF04C071
:1009E0008FE190E047D412C094FF02C084E00DC0B4
:1009F00095FF02C08BE109C0892F807496FF02C069
:100A000086E003C097FF03C089E125D381E0089504
:100A10003CD680E090E19093B0008093AF0037D651
:100A20004AD68091A300807F803119F482E08093C0
:100A30006C000895EF92FF920F931F93CF93DF9373
:100A40008091AF009091B000811520E1920708F4E9
:100A50004CC080916C0081FF37C0CAE6D0E086E8C8
:100A6000E82E80E0F82E00E010E08091A3008F7067
:100A70008130C1F488818F3F09F41882288130E0E9
:100A8000F901E25AFC4F6491F901E15AFD4F44919A
:100A9000F901E05AFE4F2491C80102D688818F5F88
:100AA000888308C0811106C0F701228141816081DD
:100AB000C801F6D50F5F1F4F2196F3E0EF0EF11C32
:100AC0000230110591F601C0E2D58091AF009091FE
:100AD000B00001979093B0008093AF00DF91CF9169
:100AE0001F910F91FF90EF90E6C5009711F00197CD
:100AF00002C080E090E19093B0008093AF00DF915E
:100B0000CF911F910F91FF90EF9008952FEF40E04C
:100B100060E080E090E0C4D52FEF40E060E081E04D
:100B200090E0BED5C8C5B3D5C6C5B89888B38360B4
:100B300088BB0895CF93DF9380EF8093A800109235
:100B4000A700C0E9DFE0E091A700E23018F5F0E08F
:100B5000E05AFF4F80812EDF9091A700E92FF0E04F
:100B6000EB59FF4F882321F080818777808305C070
:100B7000808188688083C0936E00E92FF0E0EB5994
:100B8000FF4F80818E3E11F4D093A8009F5F909319
:100B9000A700D9CF32D1C9D11092A2001092A700DC
:100BA0008091A700823008F06AC090E0FC01EB5908
:100BB000FF4F30812091A80023232F30F1F1B8F4AA
:100BC0002B3009F448C048F4293071F12A3009F07B
:100BD00050C0FC01E159FF4F2DC02C3009F441C039
:100BE0002D3009F046C0FC01E159FF4F40C0203BC9
:100BF00051F140F4203981F0203AD9F5FC01ED594A
:100C0000FF4F18C0203D19F1203F51F0203C89F5DD
:100C1000FC01ED59FF4F28C0FC01ED59FF4F07C003
:100C2000FC01ED59FF4F0CC0FC01E159FF4F8081E1
:100C3000ABD01FC08081E7D01CC0FC01E159FF4F41
:100C40008081EAD116C0FC01ED59FF4F07C0FC01BD
:100C5000ED59FF4F0CC0FC01E159FF4F80816DD170
:100C600008C0FC01E159FF4F80816DD102C0808135
:100C700070D18091A7008F5F8093A70091CFDFD1C3
:100C8000882319F080E480936D005BD0882319F0ED
:100C900080E480936D0019D1882319F080E480935B
:100CA0006D0080916E00803939F480916D00813043
:100CB00019F48DDE82D0D7D080916E00813019F486
:100CC00086DE7BD0D0D080916E00882319F08150D1
:100CD00080936E0080916D00882319F0815080937D
:100CE0006D00DF91CF91089542D11FDFC1E090DE0A
:100CF000C093840082D019D11092A2001092A40057
:100D000097DD2FE48DE299E1215080409040E1F79A
:100D100000C0000052D05DD380918400823039F34E
:100D20008130C9F707DF8091D2008823A1F3809139
:100D3000BE0084FFF0CF80916D008111ECCF7ADE90
:100D4000EACF8091800090917D00981721F08093E8
:100D50007D0081E001C080E09091810020917E00C3
:100D6000291719F090937E0081E0909182002091E4
:100D70007F00291719F090937F0002C0882319F093
:100D800081E080938500089520918100821789F089
:100D900090918200891769F0222329F091110BC0EC
:100DA00021E030E002C020E030E0F901E058FF4FE0
:100DB000818381E0089580E008958091850081110C
:100DC00002C080E0089510927300809173008F5FDD
:100DD000809373008233A8F7FCD28091BE0084FF19
:100DE000F4CF80918500882331F063E08DE790E0B7
:100DF000EAD21092850081E00895E0E8F0E01182E7
:100E0000128210820895E0E8F0E09081892B8083BF
:100E1000089583E0EDE7F0E0DF011D928A95E9F7A0
:100E2000E0E8F0E086E0DF011D928A95E9F781E0D5
:100E300084830895CF93DF93ECE8F0E08CE0DF014A
:100E40001D928A95E9F78AE0A8E9B0E0ED011992D0
:100E50008A95E9F781E0808382E0868383E0818759
:100E6000DF91CF910895CF938091A100811102C0AD
:100E7000C0E028C010927200809172008F5F809352
:100E800072008233A8F7A5D28091E90084FFF4CFE5
:100E9000C091A100C13039F466E08CE890E096D2B0
:100EA0001092A1000FC0C23021F463E082E990E00B
:100EB00005C0C33031F463E085E990E087D2109239
:100EC000A100C1E08C2FCF9108958091980090915E
:100ED0008D00981721F080938D0081E001C080E0A3
:100EE00020919D0030919E0040919300509194007C
:100EF0004217530729F0309394002093930082E027
:100F000020919F003091A000409196005091970051
:100F10004217530731F0309397002093960083E0F7
:100F200001C081118093A1000895E8E9F0E01082EA
:100F300016821582108617820895E8E9F0E0908104
:100F4000892B8083089590E090939E0080939D006C
:100F5000089590E09093A00080939F00089588E00A
:100F6000E5E7F0E0DF011D928A95E9F708957CD36B
:100F7000BB9A2FE28BE19FE0215080409040E1F747
:100F800000C00000BB98789444DF54DFE8CFFC0138
:100F90009093B2008093B10080818076803261F5B9
:100FA0008181813041F48DE790E09093CE00809371
:100FB000CD0083E00895823041F481E790E0909382
:100FC000CE008093CD0081E008958A3021F48381A2
:100FD0008093710011C0893079F4828193818115E9
:100FE000924061F484819581892B41F48091830042
:100FF00080688093830002C080E008958FEF089599
:101000002091830027FF06C0FC018081809383002C
:1010100081E008958FEF0895CF93C82F843041F475
:1010200080917D00882311F085E301C089E2ACDE68
:101030008091A200C82BC093A200CF910895809107
:10104000A2009091A400981721F08093A40081E061
:10105000089580E00895CF93C82FBBD18091D2002E
:101060008823D9F38091BE0084FFF7CF81E080937D
:101070007D0010927E0010927F0063E08DE790E08B
:10108000A2D1A7D1A6D18091D2008823D9F3809193
:10109000BE0084FFF7CF81E080937D00C0937E0087
:1010A00010927F0063E08DE790E08DD192D191D1D5
:1010B0008091D2008823D9F38091BE0084FFF7CFBE
:1010C00010927D0010927E0010927F0063E08DE709
:1010D00090E079D1CF917DC10F931F93CF93DF9390
:1010E0008C0177D18091D2008823D9F38091BE0002
:1010F00084FFF7CF80E480937D0010927E0063E050
:101100008DE790E060D165D1E80115E002E661D19C
:101110008091D2008823D9F38091BE0084FFF7CF5D
:1011200000937E008991882319F0885A80937E006D
:1011300063E08DE790E047D14CD14BD18091D20054
:101140008823D9F38091BE0084FFF7CF10927E00F0
:1011500063E08DE790E037D13CD11150C1F639D131
:101160008091D2008823D9F38091BE0084FFF7CF0D
:1011700010927D0010927E0063E08DE790E023D115
:10118000DF91CF911F910F9124C1CF93C82F882356
:1011900069F11FD18091D2008823D9F38091BE00DC
:1011A00084FFF7CF8C2F881F8827881F8295880F90
:1011B000807E80937D00CF77C0937E0063E08DE7D3
:1011C00090E001D106D105D18091D2008823D9F3D6
:1011D0008091BE0084FFF7CF10927D0010927E00B8
:1011E00063E08DE790E0EFD0CF91F3C0CF91089509
:1011F000CF93DF9300D000D01F92CDB7DEB710920F
:101200007D0026E0EEE7F0E0DF011D922A95E9F788
:10121000911102C0BADF26C0382F292FEAE0F0E092
:10122000BF0177D28D83CB01BF0173D28C83832F13
:10123000922F64E670E06DD2CB01BF016AD28B833E
:10124000832F922F68EE73E064D2CB01BF0161D28D
:101250008A83832F922F60E177E25BD26983CE018C
:1012600001963ADF0F900F900F900F900F90DF9143
:10127000CF910895EF92FF920F931F93CF93DF9337
:10128000EC011092840061D27C01229600E010E013
:101290000E151F05A9F0CF3F81E0D80788F4809193
:1012A000D200882359F08091BE0084FF07C0CE0190
:1012B0004CD29EDF0F5F1F4F2296EACF8AD0EFCF2E
:1012C00081E080938400DF91CF911F910F91FF9077
:1012D000EF9008951F93CF93DF93FA012091BE0002
:1012E0002E31D1F0208124FF05C0318128E8232749
:1012F000218302C02AE52083DC019F012E5F3F4F3E
:10130000E901962F8D9189939150E1F7EF01162F06
:10131000C901D6D81C5F1883DF91CF911F91089522
:10132000FC019381923089F058F4913009F049C062
:1013300082E790E09093CE008093CD0082E1089503
:10134000913259F09232E9F03CC08EE190E09093F6
:10135000CE008093CD0084E508958281813049F0EC
:1013600028F0823071F582E690E005C080E390E0DD
:1013700002C089E490E09093CE008093CD0089E094
:101380000895848195818130910599F050F00297FC
:10139000C1F484EA90E09093CE008093CD0085E183
:1013A00008958DE391E09093CE008093CD0083E289
:1013B000089589EB90E09093CE008093CD0084E86F
:1013C000089580E008954EEB50E084CF49EE50E060
:1013D00081CFCF93DF936091CF00635067FDE9C069
:1013E0008091CC00CCE0D0E0C81BD109CD52DF4FBA
:1013F0008091CB00803118F4CE017ADAD8C08D32DA
:1014000009F0C6C0683009F0D2C083EC8093B30005
:101410008AE580936800109274002881822F80767C
:1014200019F0CE01B4DDA1C09A813C811092BC00BC
:101430008981811113C02F71223051F4313841F468
:101440009091BE0081E09E3109F080E08093BC0065
:101450001092BD002CEB30E082E082C0282F2D7F5F
:10146000213091F4911179C0313809F076C0813082
:1014700011F08EE101C08AE58093BE008BE4809379
:10148000BF008093EA0069C0853019F49093D000C2
:1014900064C0863009F044C08B81813019F482E742
:1014A00090E024C0823041F48EE190E09093CE0031
:1014B0008093CD0084E530C08330F1F4911108C0F1
:1014C00080EA90E09093CE008093CD0084E024C029
:1014D000913041F486E990E09093CE008093CD0066
:1014E0008AE01AC09230B9F484E890E09093CE007C
:1014F0008093CD0082E110C0813241F480E390E01E
:101500009093CE008093CD0089E006C0823219F41A
:10151000CE0106DF01C080E090E49093740025C006
:101520008830A1F0893019F49093D20009C08A3034
:1015300081F08B3091F48BE48093BF008093EA00BC
:101540008AE58093BE008093E90007C022ED30E079
:1015500002C02CEB30E081E003C02CEB30E080E0F7
:101560003093CE002093CD0009C08F3F39F498818D
:1015700097FD8E8190E89093740007C09F81911130
:1015800004C09E81981708F4892F809367000FC0CC
:101590008091740087FF0BC0CE0132DD8F3F21F4B4
:1015A0008EE18093680003C0811110926700109251
:1015B000CF008091680084FF45C0809167008F3F15
:1015C00009F440C0C82F893008F0C8E08C1B809314
:1015D00067009091B30088E889278093B300CC23FB
:1015E00029F18091CD009091CE002091740026FFCA
:1015F0000AC0A4EBB0E0FC012C2F34913D9331964E
:101600002150D9F708C0DC01E4EBF0E02C2F3D912C
:1016100031932150E1F72FEF2C0F30E02F5F3F4F38
:10162000820F931F9093CE008093CD006C2F84EB9C
:1016300090E046D7CC5FCC3019F08FEF80936700F5
:10164000C093680084E196B3987159F48150D9F73A
:101650001092D0001092CA008AE58093BE00809359
:10166000E900DF91CF910895AC9A8BB780628BBF70
:10167000AEEBB0E08BE411968C931197E9EEF0E0BD
:1016800081838AE58C9380830895BA9A0895E9EA64
:10169000F0E0108211821282138214821582089562
:1016A000362F63E070E024D0FC01E755FF4F408304
:1016B000318322830895F89498B39B7F88B3846024
:1016C000E9EAF0E0219138E088BB000000C027FF84
:1016D00098BB220F00C000C000C000C098BB00C073
:1016E0003A9591F720E0EF3AF20761F77894089580
:1016F0000024552704C0080E591F880F991F009712
:1017000029F076956795B8F37105B9F7802D952F77
:101710000895AA1BBB1B51E107C0AA1FBB1FA61738
:10172000B70710F0A61BB70B881F991F5A95A9F78A
:1017300080959095BC01CD010895E199FECF9FBBA6
:101740008EBBE09A99278DB30895A8E1B0E042E0FE
:1017500050E005C012D0272F11C0DC01CB01FC01E5
:10176000E199FECF06C0FFBBEEBBE09A31960DB209
:101770000D9241505040B8F70895262FE199FECFC1
:101780001CBA9FBB8EBB2DBB0FB6F894E29AE19AB0
:0A1790000FBE01960895F894FFCFF4
:0A179A000001FF1D1B1010FF5A0094
:00000001FF
