:100000002EC248C261C246C245C244C243C242C2B5
:1000100041C240C23FC23EC23DC23CC23BC20902D5
:100020005400030100A03209040000010301010093
:100030000921110100012223000705810308000A9C
:10004000090401000103010200092111010001223C
:1000500084000705820308000A0904020001030066
:100060000000092111010001221500070503030802
:10007000000A120110010000000850D8020101001E
:10008000010200011203740069006E0079005F0034
:100090006B00650079000A037A00690061006E0058
:1000A000040309040631FF0974A10109751500262E
:1000B000FF00950875089102C005010902A101859C
:1000C000010901A10005091901290515002501757E
:1000D0000195058102750395018103050109300928
:1000E000311581257F75089502810609381581250E
:1000F0007F35004500750895018106050C0A380218
:100100001581257F750895018106C0C0050109800C
:10011000A1018502150126B700190129B7751095AF
:10012000018100C0050C0901A10185031501269C70
:100130000219012A9C02751095018100C005010970
:1001400006A101050719E029E715002501750195AC
:10015000088102950275082565190029658100C08E
:1001600000000204060A0E12171B20252A2E323622
:10017000383A3C3C3C3D3E404245484C4F53575B2F
:100180005F63666A6D6F727475767676767676766C
:1001900076767777777777777777787878787878EB
:1001A0007878787879797A7B7C7D7E7F8182848586
:1001B00087888A8C8E8F9193949697999A9B9D9E0F
:1001C0009E9FA0A0A1A1A1A1A2A3A5A7AAADB0B4E2
:1001D000B8BCC0C4C8CCD0D4D7DBDDE0E2E3E4E5F2
:1001E000E5E4E2DFDBD6D0C9C2BBB3AAA29991880D
:1001F0008179726C67625F5C5B5A5A595755524FEE
:100200004C48433F3A35302B26211D1814110E0C53
:100210000A0908080809090A0B0C0D0E0F1112141F
:10022000151718191B1C1D1E1F1F20202020202001
:100230001F1F1E1E1D1D1C1B1B1A19181817161612
:1002400015151514141414141413131211100F0E81
:100250000D0C0A0908070604030302010100003916
:10026000393837363432302E2B29262422201E1DD1
:100270001C1B1B1B1B1A191817151412100F0D0B22
:10028000090706040302010100000000000000004D
:10029000000000000000000000000000000000005E
:1002A0000000010102040507080A0D0F1214171AB5
:1002B0001D202326292C2F3234373A3C3E4042431E
:1002C000454647474848484A4C4F53585D63697014
:1002D000777E868D949BA2A8AEB3B7BBBDBFC0C0CE
:1002E000C0C0BFBFBEBEBDBCBCBBBAB9B8B8B7B654
:1002F000B5B4B4B3B3B2B2B2B2B2B2B2B2B3B3B3D2
:10030000B4B4B5B5B6B6B7B7B8B8B8B9B9B9BABA7A
:10031000BABABABABBBCBEC0C2C4C7CACDD0D3D6A3
:10032000D9DCDFE2E4E6E8EAEBECEDEDEDECEAE85F
:10033000E6E3DFDCD7D3CECAC5C0BBB7B2AEABA84D
:10034000A5A3A1A09F9F9E9D9A9794908B86807A4B
:10035000746E67615B55504B46423F3C3B39F3F34B
:10036000F3F3F2F2F1F1F0F0EFEFEEEEEDEDECEC95
:10037000ECECECECEBEAE9E8E7E5E3E2E0DEDCDB21
:10038000D9D8D6D5D4D3D3D2D2D2D0CECAC6C1BB77
:10039000B5AEA79F98918A837D77726E6B68676709
:1003A00067666665646361605E5C5A575552504D7E
:1003B0004B484543403D3B38363432302E2C2B2AB7
:1003C0002928272727272626252422201E1C1A18FD
:1003D0001613110F0D0B090705040302010101019A
:1003E00001020203040405060708090A0B0C0D0E9E
:1003F0000F1010111112121212131416181A1D20B8
:1004000023262A2E3135393C404346484A4C4E4E2D
:100410004F4F5052555A5F646B727A828B939CA5F2
:10042000ADB5BCC3CACFD4D7DADBDCDCDCDDDEDEC5
:10043000E0E1E2E3E5E7E8EAECEDEFF0F2F3F4F512
:10044000F6F6F7F7F7F7F7F7F7F7F6F6F6F6F6F545
:10045000F5F5F5F4F4F4F4F4F3F3F3F3F300112405
:100460001FBECFE5D2E0DEBFCDBF10E0A0E6B0E01A
:10047000E4E9F7E102C005900D92AC36B107D9F777
:1004800020E0ACE6B0E001C01D92A03FB207E1F76A
:1004900093D27EC9B5CDA82FB92F80E090E041E07E
:1004A00050EA609530E009C02D9182279795879595
:1004B00010F084279527305EC8F36F5FA8F3089586
:1004C000EADF8D939D930895CF93CFB7CF93C395D4
:1004D000B39BE9F7B39B0BC0B39B09C0B39B07C0A9
:1004E000B39B05C0B39B03C0B39B01C0D8C00F92A0
:1004F000DF93C091C700DD27C253DF4F012EB39BAE
:1005000003C0DF910F90E6CF2F930F931F934F936C
:100510002FEF4F6F06B303FB20F95F933F9350E03B
:100520003BE065C016B30126502953FDC89556B36C
:10053000012703FB25F92F7306B3B1F050271027CD
:1005400013FB26F906B22230F0F000C016B30127E3
:1005500003FB27F90126502906B22430E8F54F772E
:10056000206816B30000F6CF50274F7D206206B2F8
:10057000102F000000C006B300265029102713FBDF
:1005800026F906B2E2CF4F7B06B3206400C0DACF73
:1005900001265029187106B269F14E7F2160012FA2
:1005A00016B328C0002650294D7F06B22260102FB6
:1005B00029C0012650294B7F06B22460012F2DC08F
:1005C00016B301265029477F2860000006B22EC0CE
:1005D0004F7E06B3206130C0422706B34993002600
:1005E0005029102706B24FEF13FB20F9297F16B3CD
:1005F00079F2187159F10126502906B2012703FB3F
:1006000021F9237F06B371F2002650293150D0F032
:1006100006B2102713FB22F9277E16B351F20126EA
:100620005029012703FB06B223F92F7C49F2000071
:1006300006B3102713FB24F90026502906B22F79A0
:1006400039F270CF10E21ABF00271CC03B50319521
:10065000C31BD04010E21ABF0881033C21F10B34C8
:1006600011F12091C5001981110F1213EDCF4A81AC
:10067000441F093669F10D3211F0013E29F74F7020
:1006800009F0042F0093CC003F915F914F911F918F
:100690000F912F91DF910F90CAB7C5FD18CFCF9161
:1006A000CFBFCF9118952091CC00222369F31091F0
:1006B000CA001123D1F53430D2F13093CA0020930F
:1006C000C6001091C7003BE0311B3093C7002FC01C
:1006D0000091CA0001304CF50AE54F7049F43091A1
:1006E0006A0034FD25C000936A00CEEAD0E024C041
:1006F000423049F03091B90034FD1AC00093B9007E
:10070000CAEBD0E019C03091E40034FD11C0009371
:10071000E400C5EED0E010C0052710E000C021C005
:10072000052710E0C89508BB14C03AE501C032EDBA
:10073000032EC0E0D0E032E017B31861C39A08B3CB
:1007400017BB58E120E84FEF20FF052708BB27958E
:1007500017951C3F28F700004552B0F720FF0527EA
:10076000279508BB17951C3FB8F629913A9561F774
:10077000077E1091CB00110F08BBC250D04011F082
:100780001093C50010E21ABF086017B3177E402F00
:10079000477E54E05A95F1F708BB17BB48BB74CFAE
:1007A0009F92AF92BF92CF92DF92EF92FF920F9300
:1007B0001F93CF93DF93982E87E6C82E80E0D82E24
:1007C00091E7E92E90E0F92E05E610E05B0182E06A
:1007D000A80EB11CEB01E1E09E1609F19E1618F17E
:1007E000F2E09F16C1F021968FEFC81AD80AEFEFFA
:1007F000EE1AFE0A0F5F1F4FAC16BD0661F7DF91C0
:10080000CF911F910F91FF90EF90DF90CF90BF900D
:10081000AF909F900895CE018DD7F60107C0CE010D
:1008200089D7F70103C0CE0185D7F8018083DBCFDC
:10083000CF92DF92EF92FF920F931F93CF93DF93AC
:1008400080E090E07FD76C0182E090E07BD77C0174
:1008500084E090E077D78C0186E090E073D7EC01DC
:1008600088E090E06FD72AE0C216D10471F52BE042
:10087000E216F10451F50D30110539F52F9729F5E0
:10088000419719F58AE090E055D7809364008BE09A
:1008900090E050D7809362008CE090E04BD780933B
:1008A00063006DE070E080E07BDF6FE070E081E08E
:1008B00077DF61E170E082E0DF91CF911F910F91CE
:1008C000FF90EF90DF90CF906BCFDF91CF911F9192
:1008D0000F91FF90EF90DF90CF900895CF93DF932B
:1008E000683009F05AC0DC013C91209186003F3FFE
:1008F000B1F411963C91313F41F4213009F04DC0E3
:1009000010928600DF91CF91FEC0323F41F4211159
:1009100044C082E080938600DF91CF9101C1211114
:100920003CC028E0E7E7F0E0DF011D922A95E9F7F7
:10093000FC01A7E7B0E081918D9320E0AF37B207CB
:10094000D1F7C0917700D0917800CE3F81E0D807F1
:1009500040F4E199FECF6091790070917A00CE0168
:10096000F6D6CE0102968E3FA1E09A0738F4E199BF
:10097000FECF60917B0070917C00E9D6CE01049699
:100980008E3FB1E09B0748F4E199FECF60917D0076
:1009900070917E00DF91CF91DAC6DF91CF910895FB
:1009A00046B321E030E0B90102C0660F771F8A9597
:1009B000E2F7CB018423089594C190919F00809128
:1009C0006C00892780936C0093FF04C080E290E064
:1009D0004ED412C094FF02C084E00DC095FF02C047
:1009E0008BE109C0892F807496FF02C086E003C0A6
:1009F00097FF03C089E12CD381E0089543D680910D
:100A00006000909161009093AB008093AA003CD667
:100A10004FD688E190E096D680936C008AE190E012
:100A200091D680936D008CE190E08CD680936E001F
:100A30008EE190E087D6811528E0920710F480E0DF
:100A400098E0909361008093600008950F931F9346
:100A5000CF93DF938091AA009091AB00209160002A
:100A6000309161008217930708F43CC080916C00BC
:100A700081FF29C0CDE6D0E000E010E088818F3F03
:100A800009F41882288130E0F901E25AFC4F6491A0
:100A9000F901E15AFD4F4491F901E05AFE4F2491CA
:100AA000C801FBD58091600090916100811598404C
:100AB00018F088818F5F88830F5F1F4F2196023067
:100AC0001105E1F601C0E0D58091AA009091AB003C
:100AD00001979093AB008093AA00DF91CF911F9173
:100AE0000F91E6C5009731F001979093AB0080938A
:100AF000AA0004C03093AB002093AA00DF91CF91ED
:100B00001F910F9108952FEF40E060E080E090E0AA
:100B1000C4D52FEF40E060E081E090E0BED5C8C5CD
:100B2000B3D5C6C5B89888B3836088BB0895CF9302
:100B3000DF9380EF8093A3001092A200C0E9DFE072
:100B4000E091A200E23018F5F0E0EE59FF4F80810D
:100B500027DF9091A200E92FF0E0E959FF4F8823A9
:100B600021F080818777808305C0808188688083B9
:100B7000C0937000E92FF0E0E959FF4F80818E3E6D
:100B800011F4D093A3009F5F9093A200D9CF32D1EC
:100B9000C9D110929E001092A2008091A2008230D2
:100BA00008F06AC090E0FC01E959FF4F30812091C4
:100BB000A30023232F30F1F1B8F42B3009F448C0FF
:100BC00048F4293071F12A3009F050C0FC01EF5887
:100BD000FF4F2DC02C3009F441C02D3009F046C024
:100BE000FC01EF58FF4F40C0203B51F140F4203949
:100BF00081F0203AD9F5FC01EB59FF4F18C0203D98
:100C000019F1203F51F0203C89F5FC01EB59FF4FD1
:100C100028C0FC01EB59FF4F07C0FC01EB59FF4F07
:100C20000CC0FC01EF58FF4F8081ABD01FC080810A
:100C3000E7D01CC0FC01EF58FF4F8081EAD116C0FD
:100C4000FC01EB59FF4F07C0FC01EB59FF4F0CC0F3
:100C5000FC01EF58FF4F80816DD108C0FC01EF58B7
:100C6000FF4F80816DD102C0808170D18091A20040
:100C70008F5F8093A20091CFDFD1882319F080E4A9
:100C800080936F005BD0882319F080E480936F001D
:100C900019D1882319F080E480936F00809170004F
:100CA000803939F480916F00813019F486DE82D06A
:100CB000D7D080917000813019F47FDE7BD0D0D006
:100CC00080917000882319F081508093700080918A
:100CD0006F00882319F0815080936F00DF91CF91CE
:100CE000089542D11FDFC1E089DEC093860082D023
:100CF00019D110929E0010929F009ADD2FE48DE290
:100D000099E1215080409040E1F700C0000052D0AE
:100D10005DD380918600823039F38130C9F707DFD7
:100D20008091CD008823A1F38091B90084FFF0CF9A
:100D300080916F008111ECCF89DEEACF8091820033
:100D400090917F00981721F080937F0081E001C08F
:100D500080E09091830020918000291719F09093F2
:100D6000800081E09091840020918100291719F082
:100D70009093810002C0882319F081E0809387005E
:100D8000089520918300821789F09091840089173B
:100D900069F0222329F091110BC021E030E002C05C
:100DA00020E030E0F901EE57FF4F818381E00895A4
:100DB00080E0089580918700811102C080E008954D
:100DC00010927500809175008F5F8093750082335B
:100DD000A8F7FCD28091B90084FFF4CF80918700FE
:100DE000882331F063E08FE790E0EAD21092870029
:100DF00081E00895E2E8F0E0118212821082089505
:100E0000E2E8F0E09081892B8083089583E0EFE7AA
:100E1000F0E0DF011D928A95E9F7E2E8F0E086E074
:100E2000DF011D928A95E9F781E084830895CF93CD
:100E3000DF93E8E8F0E08CE0DF011D928A95E9F7A6
:100E40008AE0A4E9B0E0ED0119928A95E9F781E022
:100E5000808382E0868383E08187DF91CF9108954C
:100E6000CF9380919D00811102C0C0E028C01092F4
:100E70007400809174008F5F809374008233A8F7B0
:100E8000A5D28091E40084FFF4CFC0919D00C130D1
:100E900039F466E088E890E096D210929D000FC089
:100EA000C23021F463E08EE890E005C0C33031F435
:100EB00063E081E990E087D210929D00C1E08C2F21
:100EC000CF9108958091940090918900981721F016
:100ED0008093890081E001C080E0209199003091E9
:100EE0009A0040918F00509190004217530729F0CB
:100EF0003093900020938F0082E020919B003091EE
:100F00009C0040919200509193004217530731F09A
:100F1000309393002093920083E001C0811180936D
:100F20009D000895E4E9F0E0108216821582108693
:100F300017820895E4E9F0E09081892B8083089579
:100F400090E090939A0080939900089590E0909398
:100F50009C0080939B00089588E0E7E7F0E0DF01C4
:100F60001D928A95E9F708957CD3BB9A2FE28BE115
:100F70009FE0215080409040E1F700C00000BB9806
:100F8000789444DF54DFE8CFFC019093AD00809368
:100F9000AC0080818076803261F58181813041F4BE
:100FA0008FE790E09093C9008093C80083E0089594
:100FB000823041F483E790E09093C9008093C800A9
:100FC00081E008958A3021F483818093730011C0F9
:100FD000893079F4828193818115924061F4848112
:100FE0009581892B41F480918500806880938500EC
:100FF00002C080E008958FEF08952091850027FFBB
:1010000006C0FC0180818093850081E008958FEF08
:101010000895CF93C82F843041F480917F008823B6
:1010200011F085E301C089E2ACDE80919E00C82BFF
:10103000C0939E00CF91089580919E0090919F0053
:10104000981721F080939F0081E0089580E0089533
:10105000CF93C82FBBD18091CD008823D9F3809145
:10106000B90084FFF7CF81E080937F001092800069
:101070001092810063E08FE790E0A2D1A7D1A6D1C2
:101080008091CD008823D9F38091B90084FFF7CFF8
:1010900081E080937F00C09380001092810063E024
:1010A0008FE790E08DD192D191D18091CD008823AE
:1010B000D9F38091B90084FFF7CF10927F0010928E
:1010C00080001092810063E08FE790E079D1CF91AA
:1010D0007DC10F931F93CF93DF938C0177D18091C4
:1010E000CD008823D9F38091B90084FFF7CF80E445
:1010F00080937F001092800063E08FE790E060D1E2
:1011000065D1E80115E002E661D18091CD00882328
:10111000D9F38091B90084FFF7CF009380008991C3
:10112000882319F0885A8093800063E08FE790E06D
:1011300047D14CD14BD18091CD008823D9F38091F8
:10114000B90084FFF7CF1092800063E08FE790E052
:1011500037D13CD11150C1F639D18091CD008823CF
:10116000D9F38091B90084FFF7CF10927F001092DD
:10117000800063E08FE790E023D1DF91CF911F9152
:101180000F9124C1CF93C82F882369F11FD180917B
:10119000CD008823D9F38091B90084FFF7CF8C2F3D
:1011A000881F8827881F8295880F807E80937F0004
:1011B000CF77C093800063E08FE790E001D106D144
:1011C00005D18091CD008823D9F38091B90084FFA7
:1011D000F7CF10927F001092800063E08FE790E0DD
:1011E000EFD0CF91F3C0CF910895CF93DF9300D08C
:1011F00000D01F92CDB7DEB710927F0026E0E0E866
:10120000F0E0DF011D922A95E9F7911102C0BADFE3
:1012100026C0382F292FEAE0F0E0BF0177D28D8376
:10122000CB01BF0173D28C83832F922F64E670E0D1
:101230006DD2CB01BF016AD28B83832F922F68EED0
:1012400073E064D2CB01BF0161D28A83832F922FD6
:1012500060E177E25BD26983CE0101963ADF0F90BD
:101260000F900F900F900F90DF91CF910895EF9214
:10127000FF920F931F93CF93DF93EC0110928600A0
:1012800061D27C01229600E010E00E151F05A9F046
:10129000CF3F81E0D80788F48091CD00882359F0B2
:1012A0008091B90084FF07C0CE014CD29EDF0F5F52
:1012B0001F4F2296EACF8AD0EFCF81E0809386003D
:1012C000DF91CF911F910F91FF90EF9008951F93A1
:1012D000CF93DF93FA012091B9002E31D1F0208114
:1012E00024FF05C0318128E82327218302C02AE595
:1012F0002083DC019F012E5F3F4FE901962F8D91E6
:1013000089939150E1F7EF01162FC901D9D81C5FDD
:101310001883DF91CF911F910895FC019381923042
:1013200089F058F4913009F049C082E790E0909339
:10133000C9008093C80082E10895913259F0923239
:10134000E9F03CC08EE190E09093C9008093C80022
:1013500084E508958281813049F028F0823071F56A
:1013600082E690E005C080E390E002C089E490E06E
:101370009093C9008093C80089E008958481958185
:101380008130910599F050F00297C1F484EA90E021
:101390009093C9008093C80085E108958DE391E0A2
:1013A0009093C9008093C80083E2089589EB90E090
:1013B0009093C9008093C80084E8089580E0089560
:1013C00049EB50E084CF44EE50E081CFCF93DF93E0
:1013D0006091CA00635067FDE9C08091C700CCE00E
:1013E000D0E0C81BD109C253DF4F8091C6008031C5
:1013F00018F4CE0173DAD8C08D3209F0C6C0683057
:1014000009F0D2C083EC8093AE008AE580936A0035
:10141000109276002881822F807619F0CE01B4DDFB
:10142000A1C09A813C811092B7008981811113C0BB
:101430002F71223051F4313841F49091B90081E09C
:101440009E3109F080E08093B7001092B80027EB3E
:1014500030E082E082C0282F2D7F213091F491115D
:1014600079C0313809F076C0813011F08EE101C0C9
:101470008AE58093B9008BE48093BA008093E500FD
:1014800069C0853019F49093CB0064C0863009F0B0
:1014900044C08B81813019F482E790E024C082300F
:1014A00041F48EE190E09093C9008093C80084E5F8
:1014B00030C08330F1F4911108C080EA90E090933D
:1014C000C9008093C80084E024C0913041F486E9CB
:1014D00090E09093C9008093C8008AE01AC09230CF
:1014E000B9F484E890E09093C9008093C80082E149
:1014F00010C0813241F480E390E09093C900809362
:10150000C80089E006C0823219F4CE0106DF01C0AE
:1015100080E090E49093760025C08830A1F0893077
:1015200019F49093CD0009C08A3081F08B3091F48A
:101530008BE48093BA008093E5008AE58093B9003C
:101540008093E40007C02DEC30E002C027EB30E0D0
:1015500081E003C027EB30E080E03093C9002093A6
:10156000C80009C08F3F39F4988197FD8E8190E8BB
:101570009093760007C09F81911104C09E819817B7
:1015800008F4892F809369000FC08091760087FF4F
:101590000BC0CE0132DD8F3F21F48EE180936A00D3
:1015A00003C08111109269001092CA0080916A00F4
:1015B00084FF45C0809169008F3F09F440C0C82F67
:1015C000893008F0C8E08C1B809369009091AE00D0
:1015D00088E889278093AE00CC2329F18091C80048
:1015E0009091C9002091760026FF0AC0AFEAB0E0D2
:1015F000FC012C2F34913D9331962150D9F708C02E
:10160000DC01EFEAF0E02C2F3D9131932150E1F71E
:101610002FEF2C0F30E02F5F3F4F820F931F9093DF
:10162000C9008093C8006C2F8FEA90E049D7CC5F47
:10163000CC3019F08FEF80936900C0936A0084E189
:1016400096B3987159F48150D9F71092CB0010924B
:10165000C5008AE58093B9008093E400DF91CF91C3
:101660000895AC9A8BB780628BBFA9EBB0E08BE496
:1016700011968C931197E4EEF0E081838AE58C93C8
:1016800080830895BA9A0895E4EAF0E01082118206
:1016900012821382148215820895362F63E070E05F
:1016A00024D0FC01EC55FF4F408331832283089501
:1016B000F89498B39B7F88B38460E4EAF0E02191CA
:1016C00038E088BB000000C027FF98BB220F00C095
:1016D00000C000C000C098BB00C03A9591F720E060
:1016E000EA3AF20761F7789408950024552704C078
:1016F000080E591F880F991F009729F07695679556
:10170000B8F37105B9F7802D952F0895AA1BBB1B5F
:1017100051E107C0AA1FBB1FA617B70710F0A61BF1
:10172000B70B881F991F5A95A9F780959095BC0112
:10173000CD010895E199FECF9FBB8EBBE09A99271A
:101740008DB30895A8E1B0E042E050E005C012D0AA
:10175000272F11C0DC01CB01FC01E199FECF06C0AF
:10176000FFBBEEBBE09A31960DB20D924150504056
:10177000B8F70895262FE199FECF1CBA9FBB8EBB08
:101780002DBB0FB6F894E29AE19A0FBE0196089528
:04179000F894FFCFFB
:0C17940000100001FF1D1B1010FF5A0088
:00000001FF
