:100000004AC064C07DC062C061C060C05FC05EC0E5
:100010005DC05CC05BC05AC059C058C057C0050124
:100020000906A101050719E029E715002501750159
:1000300095088102950175082565190029658100DB
:10004000C0090222000101008032090400000103FE
:10005000010100092101010001222300070581039C
:1000600008000A1201100100000008DDDD12340052
:1000700001010200011203740069006E0079005F43
:10008000006B00650079000A037A00690061006E68
:1000900000040309040011241FBECFE5D2E0DEBF37
:1000A000CDBF10E0A0E6B0E0E0E5FAE002C00590C8
:1000B0000D92A436B107D9F720E0A4E6B0E001C064
:1000C0001D92AE39B207E1F7DBD2C0C499CFA82F99
:1000D000B92F80E090E041E050EA609530E009C03F
:1000E0002D9182279795879510F084279527305E6C
:1000F000C8F36F5FA8F30895EADF8D939D93089589
:10010000CF93CFB7CF93C395B39BE9F7B39B0BC006
:10011000B39B09C0B39B07C0B39B05C0B39B03C08F
:10012000B39B01C0D5C00F92DF93C0918100DD2742
:10013000C857DF4F012EB39B03C0DF910F90E6CF6E
:100140002F930F931F934F932FEF4F6F06B303FB24
:1001500020F95F933F9350E03BE065C016B3012662
:10016000502953FDC89556B3012703FB25F92F737A
:1001700006B3B1F05027102713FB26F906B2223040
:10018000F0F000C016B3012703FB27F90126502920
:1001900006B22430E8F54F77206816B30000F6CF9A
:1001A00050274F7D206206B2102F000000C006B31A
:1001B00000265029102713FB26F906B2E2CF4F7B09
:1001C00006B3206400C0DACF01265029187106B2A8
:1001D00069F14E7F2160012F16B328C000265029F7
:1001E0004D7F06B22260102F29C0012650294B7F77
:1001F00006B22460012F2DC016B301265029477F77
:100200002860000006B22EC04F7E06B3206130C0C9
:10021000422706B3499300265029102706B24FEF14
:1002200013FB20F9297F16B379F2187159F10126D1
:10023000502906B2012703FB21F9237F06B371F28F
:10024000002650293150D0F006B2102713FB22F9B6
:10025000277E16B351F201265029012703FB06B26F
:1002600023F92F7C49F2000006B3102713FB24F971
:100270000026502906B22F7939F270CF10E21ABF4A
:10028000002719C03B503195C31BD04010E21ABF64
:100290000881033C09F10B34F9F020917F001981AA
:1002A000110F1213EDCF4A81441F093651F10D325F
:1002B00011F0013E29F7009386003F915F914F9125
:1002C0001F910F912F91DF910F90CAB7C5FD1BCFE2
:1002D000CF91CFBFCF91189520918600222369F34B
:1002E00010918400112379F534307AF13093840031
:1002F00020938000109181003BE0311B30938100FE
:1003000024C0009184000130F4F40AE54F7049F4F0
:100310003091620034FD1AC000936200C8E6D0E05C
:1003200019C03091730034FD11C000937300C4E70D
:10033000D0E010C0052710E000C021C0052710E064
:10034000C89508BB14C03AE501C032ED032EC0E0E9
:10035000D0E032E017B31861C39A08B317BB58E175
:1003600020E84FEF20FF052708BB279517951C3F76
:1003700028F700004552B0F720FF0527279508BB56
:1003800017951C3FB8F629913A9561F7077E1091B1
:100390008500110F08BBC250D04011F010937F00B0
:1003A00010E21ABF086017B3177E402F477E54E053
:1003B0005A95F1F708BB17BB48BB7FCF02D3BB9A56
:1003C0002FE28BE19FE0215080409040E1F700C098
:1003D0000000BB9878940895FF920F931F93CF93DA
:1003E000DF938C016FD1809187008823D9F38091AE
:1003F000730084FFF7CF80E480936600109267005B
:1004000062E086E690E03DD15DD1E8010B5F1F4FD1
:1004100082E6F82E57D1809187008823D9F3809106
:10042000730084FFF7CFF09267008991882319F059
:10043000885A8093670062E086E690E022D142D13C
:1004400041D1809187008823D9F38091730084FF84
:10045000F7CF1092670062E086E690E012D132D1C9
:100460000C171D07B9F62ED1809187008823D9F388
:100470008091730084FFF7CF10926600109267009E
:1004800062E086E690E0FDD0DF91CF911F910F9161
:10049000FF9018C1FC0186E690E090938300809362
:1004A000820090819076903221F1903411F080E0BA
:1004B00008958181863159F0883099F0833021F197
:1004C0008130A9F7109260008CB3C198F0CFE19908
:1004D000FECF6281738184819581A5D2C19A80E02B
:1004E0000895E199FECF6281848195818ED2C19A6F
:1004F000DECF81818130D9F2823069F08A30B9F65D
:10050000838180936400D3CFE199FECFC19881E0CD
:1005100080936000CCCF84E690E09093830080933A
:100520008200C5CFCF93DF9300D000D01F92CDB70C
:10053000DEB7B898B99ABA98C09AC198C29A3EDF05
:1005400010E03AE0E32EF12C44E6842E912C58EE94
:10055000A52E53E0B52E60E1662E67E2762E552477
:100560005394B0990AC0111104C0809160008111A8
:1005700009C01FE1A7D0B09BF6CF1123D9F31150CA
:10058000A1D0F9CF1092600010926600109267001F
:1005900080E090E035D26C01892B01F101E010E0A0
:1005A00080918700882321F08091730084FD02C030
:1005B00089D0F6CFC801880F991F22D2482E292F43
:1005C00091113EC0382E81110DC0C016D10631F0F8
:1005D0000F5F1F4F011581E0180711F7509260005F
:1005E0001FE1C8CF6FD0809187008823D9F3809115
:1005F000730084FFF7CF331C3324331C3294330C45
:1006000080EE382230926600842D8F7780936700C9
:1006100062E086E690E035D055D054D080918700D6
:100620008823D9F38091730084FFF7CF109266007E
:100630001092670062E086E690E023D043D0C5CFF9
:10064000B701CAD18D83CB01B701C6D18C83842D6C
:10065000922FB401C1D1CB01B701BED18B83842DC0
:10066000922FB501B9D1CB01B701B6D18A83842DC0
:10067000922FB301B1D16983CE010196ADDEA5CF32
:1006800051CFCF93C62F2091730024FF17C0309114
:10069000740028E8232720937400FC01A5E7B0E04C
:1006A0008C2F91919D938150E1F76C2F85E790E01D
:1006B00023DDCC5FC0937300CF9108952AE520938A
:1006C0007300EBCFCF93DF9380918400835087FD3D
:1006D00007C0909180009D3209F474C0109284008C
:1006E0008091620084FF61C0609161006F3F09F4F6
:1006F0005CC0693008F496C06850609361009091C6
:10070000680088E8892780936800CCE068E0A091C1
:100710008200B09183008091650086FF96C0FD0144
:1007200084918093690031968FEF860F09F42DC074
:10073000E491E0936A00FD013296623031F1E49178
:10074000E0936B00FD0133966330F9F0E491E093A0
:100750006C00FD0134966430C1F0E491E0936D00CB
:10076000FD013596653089F0E491E0936E00FD015E
:100770003696663051F0E491E0936F00FD013796B4
:10078000673019F0E491E093700090E00196A80FB3
:10079000B91FB0938300A093820089E690E0ACDC9F
:1007A000CC3009F04EC0C093620094E186B38871EA
:1007B00031F49150D9F71092850010927F00DF91AB
:1007C000CF910895883009F089CF80918100CCE0E5
:1007D000D0E0C81BD109C857DF4F83EC8093680075
:1007E0008AE580936200109265008881807609F026
:1007F00069C09A81109271008981811169C010923B
:10080000720021E730E082E0309383002093820081
:100810009F81911104C09E81981708F4892F8093BD
:1008200061005CCF109261009091680088E8892790
:1008300080936800611149C060E089E690E05CDC6B
:10084000C4E08FEF80936100AECF8C9180936900FC
:100850008FEF860F09F499CF11969C911197909381
:100860006A00623009F491CF12969C91129790938E
:100870006B00633009F489CF13969C911397909382
:100880006C00643009F481CF14969C911497909376
:100890006D00653009F479CF15969C91159790936A
:1008A0006E00663009F471CF16969C91169790935E
:1008B0006F00673009F469CF17969C911797909352
:1008C000700063CFCE01E6DDA3CFC4E0C60F1FCF1B
:1008D000853071F0863039F1883081F08930B1F09F
:1008E0008A3081F08B30C1F021E730E080E08CCF9E
:1008F0009093850021E730E080E086CF27E830E064
:1009000081E082CF21E730E081E07ECF90938700C5
:1009100021E730E080E078CF8BE48093740021E71A
:1009200030E080E071CF8B81813069F0823069F1F5
:10093000833009F18132B9F0823269F080E090E4CD
:100940009093650065CF83E690E090938300809359
:10095000820082E1F4CF8EE190E090938300809357
:10096000820083E2ECCF83E590E090938300809354
:10097000820089E0E4CF911110C081E990E090936A
:1009800083008093820084E0DACF81E490E090934A
:1009900083008093820082E2D2CF913051F0923076
:1009A00069F685E790E0909383008093820082E16E
:1009B000C6CF87E890E090938300809382008AE01E
:1009C000BECFAC9A8BB780628BBFE3E7F0E08BE4DD
:1009D00081838AE580830895AA1BBB1B51E107C070
:1009E000AA1FBB1FA617B70710F0A61BB70B881FBF
:1009F000991F5A95A9F780959095BC01CD0108954E
:100A0000A8E1B0E042E050E013C0262FE199FECF0C
:100A10001CBA9FBB8EBB2DBB0FB6F894E29AE19A2D
:100A20000FBE01960895F1DF272FF0CFDC01CB0137
:100A3000FC01E199FECF06C0FFBBEEBBE09A319608
:100A40000DB20D9241505040B8F70895F894FFCF81
:040A500001FF5A0048
:00000001FF
