:1000000079C093C0BFC091C090C08FC08EC08DC05A
:100010008CC08BC08AC089C088C087C086C072C2AD
:1000200075C27CC277C27EC269C264C29DC2A0C2D0
:10003000A7C2A2C2A9C294C28FC2C7C2C8C2C9C243
:10004000CAC2CBC2BEC2BFC20B080F0F122C1A12FB
:10005000150F079E05010906A10175019508050701
:1000600019E029E715002501810295017508810332
:10007000950575010508190129059102950175037A
:10008000910395067508150025680507190029686C
:100090008100C00902220001010080320904000031
:1000A0000103010100092101010001223F000705B0
:1000B000810308000A1201100100000008C016DBCD
:1000C0002700010102000114037A00690061006E3B
:1000D000005F006B0065007900730014037A00690B
:1000E0000061006E005F007600750073006200041E
:1000F0000309040011241FBECFE5D2E0DEBFCDBF4F
:1001000010E0A0E6B0E0E8E9FDE002C005900D9245
:10011000A236B107D9F721E0A2E6B0E001C01D92F6
:10012000A033B207E1F75BD235C66ACFA82FB92F4B
:1001300080E090E041E050EA609530E009C02D9108
:1001400082279795879510F084279527305EC8F30E
:100150006F5FA8F30895EADF8D939D930895A6E05D
:1001600088279927AA9569F00197E1F3B399FCCF05
:10017000B39BFECF81E09927A6B3019611F0A87139
:10018000D9F70895CF93CFB7CF93C395B39BE9F732
:10019000B39B0BC0B39B09C0B39B07C0B39B05C007
:1001A000B39B03C0B39B01C0D5C00F92DF93C09136
:1001B0001301DD27C65EDE4F012EB39B03C0DF9126
:1001C0000F90E6CF2F930F931F934F932FEF4F6F07
:1001D00006B303FB20F95F933F9350E03BE065C01B
:1001E00016B30126502953FDC89556B3012703FBCA
:1001F00025F92F7306B3B1F05027102713FB26F90A
:1002000006B22230F0F000C016B3012703FB27F935
:100210000126502906B22430E8F54F77206816B33E
:100220000000F6CF50274F7D206206B2102F00004D
:1002300000C006B300265029102713FB26F906B28A
:10024000E2CF4F7B06B3206400C0DACF01265029ED
:10025000187106B269F14E7F2160012F16B328C0D4
:10026000002650294D7F06B22260102F29C001269A
:1002700050294B7F06B22460012F2DC016B30126F2
:100280005029477F2860000006B22EC04F7E06B37B
:10029000206130C0422706B3499300265029102719
:1002A00006B24FEF13FB20F9297F16B379F21871CC
:1002B00059F10126502906B2012703FB21F9237FBA
:1002C00006B371F2002650293150D0F006B2102743
:1002D00013FB22F9277E16B351F20126502901277C
:1002E00003FB06B223F92F7C49F2000006B3102766
:1002F00013FB24F90026502906B22F7939F270CF6A
:1003000010E21ABF002719C03B503195C31BD040E3
:1003100010E21ABF0881033C09F10B34F9F0209177
:1003200011011981110F1213EDCF4A81441F0936B3
:1003300051F10D3211F0013E29F7009318013F9160
:100340005F914F911F910F912F91DF910F90CAB73D
:10035000C5FD1BCFCF91CFBFCF911895209118012C
:10036000222369F310911601112379F534307AF1C3
:100370003093160120931201109113013BE0311BC1
:100380003093130124C0009116010130F4F40AE502
:100390004F7049F43091610034FD1AC00093610040
:1003A000CAEFD0E019C03091050134FD11C00093AF
:1003B0000501C6E0D1E010C0052710E000C021C053
:1003C000052710E0C89508BB14C03AE501C032ED1E
:1003D000032EC0E0D0E032E017B31861C39A08B32F
:1003E00017BB58E120E84FEF20FF052708BB2795F2
:1003F00017951C3F28F700004552B0F720FF05274E
:10040000279508BB17951C3FB8F629913A9561F7D7
:10041000077E10911701110F08BBC250D04011F098
:100420001093110110E21ABF086017B3177E402F16
:10043000477E54E05A95F1F708BB17BB48BB7FCF06
:10044000DF92EF92FF920F931F93CF93DF9388E099
:10045000E82EF12C00E010E8D02ED10ED1BE7FDEC8
:10046000EC01C43389E0D8070CF40D2D169591E00A
:10047000E91AF10889F78FEF800F81BF81B7E02E6D
:10048000F12C9FEFE91AF90A90E0E816F90674F4E6
:1004900016C08C179D0714F401B7EC0191B79F5F4C
:1004A00091BF21B730E0E216F3064CF058DE8453DA
:1004B000994097FFEECF919581959109EACF01BFC1
:1004C000DF91CF911F910F91FF90EF90DF900895F2
:1004D00086E0E9EEF0E0DF011D928A95E9F71092DF
:1004E000EF00089590E08730910538F4FC01E15F5A
:1004F000FF4F0994611126C0BE9808956623B1F09C
:10050000BD9A08956623B1F0B89A08956623B1F0B4
:10051000B99A0895662381F0BB9A0895662381F005
:10052000BA9A0895662321F0BC9A0895BD9808955B
:10053000BC980895B8980895BB980895B9980895FF
:10054000BA980895BE9A089590E08730910538F4DE
:10055000FC01EA5EFF4F0994611126C0C698089518
:100560006623B1F0C59A08956623B1F0C09A089544
:100570006623B1F0C19A0895662381F0C39A089565
:10058000662381F0C29A0895662321F0C49A0895E3
:10059000C5980895C4980895C0980895C39808957B
:1005A000C1980895C2980895C69A089590E087303A
:1005B000910510F080E00895FC01E35EFF4F86B3E3
:1005C00009948072089580740895817008958270EE
:1005D000089584700895887008958071089560E08A
:1005E00080E080DF61E080E0AFDF61E081E07ADF22
:1005F00060E081E0A9DF60E082E074DF61E082E03A
:10060000A3DF6CD010E089EEA82E80E0B82E96E033
:10061000C92EC1E0D0E080E0C9DF811123C01123E1
:1006200061F11FE1E12CF12C8091E80090E09E0146
:100630000E2C02C0220F331F0A94E2F78223932369
:1006400028173907E1F060E081E07EDFEFEFEE1A76
:10065000FE0AF3E0EF16F10439F74ED080E0A6DF92
:100660008823E9F21092EF00F5018C2D11928A9502
:10067000E9F71123B9F21150D5CF06D0D2CF61E0FE
:1006800081E062DF39D0EACFEF92FF921F93CF93E0
:10069000DF931EDF20D0182F8823B9F088E4E82EDE
:1006A00080E0F82EE70190911901992321F09091B3
:1006B000050194FD02C0DED1F6CFFE0184911CD16C
:1006C00021969C2F9E19911770F3DF91CF911F9166
:1006D000FF90EF9008958CE090E0089550D3BB9A7E
:1006E0002FE28BE19FE0215080409040E1F700C075
:1006F0000000BB9878940895BDD18091190188239A
:1007000009F48AC08091050184FF86C08091EF00C2
:100710009091F000981709F481C08093F00091E067
:100720008091E9002091F200281719F08093F200DF
:1007300091E08091EA002091F300281719F080934E
:10074000F30091E08091EB002091F400281719F05C
:100750008093F40091E08091EC002091F50028173F
:1007600019F08093F50091E08091ED002091F60062
:10077000281761F18093F6008091EE009091F700C8
:1007800098138093F700A0916700B0E0CD01019627
:100790008F70992720916600281789F0AA0FBB1F38
:1007A000AA0FBB1FAA0FBB1FA859BF4F98E0E0EFCD
:1007B000F0E001900D929A95E1F7809367005AD18D
:1007C0008091050184FD2CC081E008958091EE00A8
:1007D0002091F7002813D5CF9130A9F24BD1809109
:1007E000050184FF19C080916600909167009817F9
:1007F00099F090E0880F991F880F991F880F991F13
:1008000068E088599F4F15D18091660090E001966D
:100810008F7099278093660080E0089590E080CFE4
:100820008091660090916700981771F290E0880FB0
:10083000991F880F991F880F991F68E088599F4F4B
:10084000F8D08091660090E001968F709927809390
:10085000660081E00895FC0190819076903211F05D
:1008600080E008958181813069F0823099F08A308A
:1008700041F18930A9F7828193818115924091F0ED
:100880008FEF089580EF90E090931501809314010D
:1008900088E0089585E690E0909315018093140117
:1008A00081E0089584819581892B51F781E08093BF
:1008B00064008681978190936300809362008FEF3C
:1008C000089583818093650080E0089520916200FF
:1008D00030916300232B11F48FEF08952091640071
:1008E0002130D1F7FC0180818093E80010926300F1
:1008F0001092620081E00895CF93C82FBBD09091F1
:1009000019019923D9F39091050194FFF7CF8C2F0A
:10091000881F8827881F8295880F807E8093F0002B
:10092000CF77C093F200A0916700B0E0CD010196AF
:100930008F70992720916600281789F0AA0FBB1F96
:10094000AA0FBB1FAA0FBB1FA859BF4F98E0E0EF2B
:10095000F0E001900D929A95E1F7809367008AD0BC
:100960008091050184FD30C085D0809119018823D4
:10097000D9F38091050184FFF7CF1092F000109217
:10098000F200A0916700B0E0CD0101968F70992729
:1009900020916600281789F0AA0FBB1FAA0FBB1F62
:1009A000AA0FBB1FA859BF4F98E0E0EFF0E00190FD
:1009B0000D929A95E1F7809367005CD080910501D4
:1009C00084FD1CC0CF9156C0809166009091670055
:1009D000981751F290E0880F991F880F991F880F80
:1009E000991F68E088599F4F24D08091660090E05D
:1009F00001968F70992780936600B6CF809166002C
:100A0000909167009817F1F290E0880F991F880F76
:100A1000991F880F991F68E088599F4F0AD08091CD
:100A2000660090E001968F70992780936600CF91C1
:100A300021C0CF93C62F2091050124FF17C030910C
:100A4000060128E8232720930601FC01A7E0B1E076
:100A50008C2F91919D938150E1F76C2F87E091E06D
:100A60007ADBCC5FC0930501CF9108952AE52093EE
:100A70000501EBCFCF93DF9360911601635067FDC3
:100A800014C0209113018CE090E0821B9109EC01CD
:100A9000C65EDE4F809112018D3209F444C0809110
:100AA000F90087FDB5C0109216018091610084FFA6
:100AB0001BC0609160006F3FB9F0693008F05BC007
:100AC000109260009091FA0088E889278093FA00DC
:100AD0006111C3C060E08BEF90E03DDBD4E08FEFAD
:100AE00080936000D093610094E186B3887181F4B3
:100AF0009150D9F710921701109211018091F800CE
:100B0000813019F0C1E0C093F800DF91CF910895D2
:100B1000C1E09111C0E08091F800C817B1F3F894DA
:100B20008FDC7894F0CF683009F0BDCF83EC8093F0
:100B3000FA008AE5809361001092F900888180763E
:100B400009F07FC09A81109203018981811198C0B8
:100B50001092040123E031E082E0309315012093EC
:100B600014019F81911104C09E81981708F4892F68
:100B70008093600098CF6850609360009091FA0075
:100B800088E889278093FA0040911401509115015B
:100B90008091F90086FD47C0FA0181918093FB00A6
:100BA00027E068E0CCE080818093FC002130E1F018
:100BB00081818093FD002230B9F082818093FE0014
:100BC000233091F083818093FF00243069F0848189
:100BD00080930001253041F085818093010126300A
:100BE00019F086818093020130E02F5F3F4FCA01E8
:100BF000820F931FDC2F90931501809314018BEFCC
:100C000090E0A9DACC3009F06ACFD09361006CCFC4
:100C1000CE015CDE8F3F09F443C0882309F443CF43
:100C20001092600040CF68E0CCE0ABEFB0E0FA019A
:100C3000862F94919D9331968150D9F72FEF260FEF
:100C4000D3CFCE0108DE8F3F09F08BCF988197FD7F
:100C50002BC090E89093F9008BCFC4E0C60F409171
:100C60001401509115018091F90086FDDECFFA0143
:100C700081918093FB002FEF260F09F094CFB4CF22
:100C80008530A1F0863011F18830E1F08930A1F093
:100C90008A3099F18B3051F123E031E080E05DCF73
:100CA0008EE180936100FFCE8E81D3CF90931701A8
:100CB00023E031E080E051CF9093190123E031E04F
:100CC00080E04BCF29E131E081E047CF8B8181305B
:100CD000D1F1823081F1833021F18132D1F0823241
:100CE00081F080E090E49093F9003BCF8BE4809317
:100CF000060123E031E080E030CF23E031E081E005
:100D00002CCF84E590E090931501809314018FE33C
:100D1000E9CF85EA90E0909315018093140189E072
:100D2000E1CF911118C08FEE90E090931501809360
:100D3000140184E0D7CF83E990E09093150180936C
:100D4000140182E2CFCF85EB90E090931501809360
:100D5000140182E1C7CF913051F0923011F687EC47
:100D600090E0909315018093140184E1BBCF8BED4B
:100D700090E0909315018093140184E1B3CFAC9A75
:100D80008BB780628BBFE5E0F1E08BE481838AE57D
:080D900080830895F894FFCF61
:020D9800FF5A00
:00000001FF
