:10000000B2C0CCC0F8C0CAC0C9C0C8C0C7C0C6C092
:10001000C5C0C4C0C3C0C2C0C1C0C0C0BFC09CC2F4
:10002000A1C2A6C2ABC2B0C2B5C2BAC2C7C2CCC21C
:10003000D1C2D6C2DBC2E0C2E5C2F3C2F4C2F5C28D
:10004000F6C2F7C2F8C2F9C20000000000000000CA
:100050002A2B280000000000000000000000000023
:1000600000000029000000002C9EB4A0A1A2A4342E
:10007000A6A7A5AE362D3738271E1F202122232400
:100080002526B333B62EB7B89F8485868788898A9C
:100090008B8C8D8E8F909192939495969798999A38
:1000A0009B9C9D2F3130A3AD350405060708090A36
:1000B0000B0C0D0E0F101112131415161718191A18
:1000C0001B1C1DAFB1B0B505010906A10175019555
:1000D00008050719E029E71500250181029501753A
:1000E00008810395057501050819012905910295F7
:1000F0000175039103950675081500256805071914
:100100000029688100C00902220001010080320933
:100110000400000103010100092101010001223F47
:10012000000705810308000A120110010000000801
:10013000C016DB2700010102000114037A006900E8
:1001400061006E005F006B006500790073001403AE
:100150007A00690061006E005F0076007500730030
:1001600062000403090411241FBECFE5D2E0DEBF04
:10017000CDBF10E0A0E6B0E0EAE1FCE002C00590EF
:100180000D92A037B107D9F721E0A0E7B0E001C098
:100190001D92AE33B207E1F754D23DC531CFA82F3F
:1001A000B92F80E090E041E050EA609530E009C06E
:1001B0002D9182279795879510F084279527305E9B
:1001C000C8F36F5FA8F30895EADF8D939D930895B8
:1001D000A6E088279927AA9569F00197E1F3B399DA
:1001E000FCCFB39BFECF81E09927A6B3019611F017
:1001F000A871D9F70895CF93CFB7CF93C395B39B89
:10020000E9F7B39B0BC0B39B09C0B39B07C0B39B7B
:1002100005C0B39B03C0B39B01C0D5C00F92DF9351
:10022000C0912101DD27C85DDE4F012EB39B03C0C5
:10023000DF910F90E6CF2F930F931F934F932FEFE4
:100240004F6F06B303FB20F95F933F9350E03BE011
:1002500065C016B30126502953FDC89556B3012732
:1002600003FB25F92F7306B3B1F05027102713FBBA
:1002700026F906B22230F0F000C016B3012703FBC6
:1002800027F90126502906B22430E8F54F77206877
:1002900016B30000F6CF50274F7D206206B2102F14
:1002A000000000C006B300265029102713FB26F9D2
:1002B00006B2E2CF4F7B06B3206400C0DACF01263E
:1002C0005029187106B269F14E7F2160012F16B3D3
:1002D00028C0002650294D7F06B22260102F29C069
:1002E000012650294B7F06B22460012F2DC016B382
:1002F00001265029477F2860000006B22EC04F7E9D
:1003000006B3206130C0422706B349930026502926
:10031000102706B24FEF13FB20F9297F16B379F2AD
:10032000187159F10126502906B2012703FB21F962
:10033000237F06B371F2002650293150D0F006B267
:10034000102713FB22F9277E16B351F201265029FC
:10035000012703FB06B223F92F7C49F2000006B304
:10036000102713FB24F90026502906B22F7939F201
:1003700070CF10E21ABF002719C03B503195C31B44
:10038000D04010E21ABF0881033C09F10B34F9F0A8
:1003900020911F011981110F1213EDCF4A81441FC3
:1003A000093651F10D3211F0013E29F70093260173
:1003B0003F915F914F911F910F912F91DF910F907E
:1003C000CAB7C5FD1BCFCF91CFBFCF911895209154
:1003D0002601222369F310912401112379F5343089
:1003E0007AF13093240120932001109121013BE008
:1003F000311B3093210124C0009124010130F4F419
:100400000AE54F7049F43091610034FD1AC0009341
:100410006100C8E0D1E019C03091130134FD11C072
:1004200000931301C4E1D1E010C0052710E000C023
:1004300021C0052710E0C89508BB14C03AE501C0EB
:1004400032ED032EC0E0D0E032E017B31861C39A5A
:1004500008B317BB58E120E84FEF20FF052708BB82
:10046000279517951C3F28F700004552B0F720FF4D
:100470000527279508BB17951C3FB8F629913A9593
:1004800061F7077E10912501110F08BBC250D040C3
:1004900011F010931F0110E21ABF086017B3177E06
:1004A000402F477E54E05A95F1F708BB17BB48BB75
:1004B0007FCFDF92EF92FF920F931F93CF93DF9343
:1004C00008E010E0C0E0D0E8DD2EDC0ED1BE80DE1A
:1004D0007C0184E3E81689E0F8060CF4CD2DD6956E
:1004E0000150110989F78FEF8C0F81BF0C2F10E09D
:1004F0000F5F1F4F81B790E0081719078CF068DE77
:100500008453994097FF03C09195819591098E1569
:100510009F0514F4C1B77C0181B78F5F81BFEACF1B
:10052000C1BFDF91CF911F910F91FF90EF90DF90AE
:100530000895E7EFF0E01082118212821382148294
:1005400015821092FD00089590E08730910568F5BE
:10055000FC01E15FFF4F0994662311F0B89A0895FA
:10056000B8980895662311F0B99A0895B998089536
:10057000662311F0BA9A0895BA980895662311F087
:10058000BB9A0895BB980895662311F0BC9A08950C
:10059000BC980895662311F0BD9A0895BD980895FA
:1005A000662311F0BE9A0895BE98089590E08730B2
:1005B000910568F5FC01EA5EFF4F0994662311F08E
:1005C000C09A0895C0980895662311F0C19A0895BD
:1005D000C1980895662311F0C29A0895C2980895AB
:1005E000662311F0C39A0895C3980895662311F005
:1005F000C49A0895C4980895662311F0C59A089581
:10060000C5980895662311F0C69A0895C69808956E
:1006100090E08730910598F4FC01E35EFF4F86B3CC
:100620000994817008958270089584700895887087
:10063000089580710895807208958074089580E00F
:10064000089560E080E080DF61E080E0AFDF61E09E
:1006500081E07ADF60E081E0A9DF60E082E074DFC2
:1006600061E082E0A3DFA5D007EF10E086E0D82E9E
:10067000CC24C394EE24E394F12C80E0C9DF8111F3
:1006800006C082E690E02CD0C0E0D0E00FC082E04F
:10069000BFDF811103C0C092FD0002C01092FD00B7
:1006A000F8014D2D11924A95E9F7EECF8091F600B1
:1006B00090E097010C2E02C0220F331F0A94E2F73C
:1006C000822393232817390711F461E001C060E009
:1006D00081E06CDF2196C330D10541F778D0CDCFD2
:1006E000EF92FF920F931F93CF93DF937C0121DF53
:1006F000F70101900020E9F73197CE2FCE19DE2DBA
:100700008701802F8D1B8C1798F4809127018823F7
:1007100069F08091130184FF09C0D801ED918D012A
:10072000F0E0E85BFF4F8491F8D0EBCF40D1EDCF04
:10073000DF91CF911F910F91FF90EF9008958091DD
:10074000740090917500981791F090E023E0880F65
:10075000991F2A95E1F768E08A589F4F06D180914A
:10076000740090E001968F7099278093740008952B
:10077000A0917500B0E0CD0101968F70992720916E
:100780007400281781F093E0AA0FBB1F9A95E1F738
:10079000AA58BF4F98E0EEEFF0E001900D929A95C5
:1007A000E1F78093750003D18091130184FDC7CFD9
:1007B000089526D2BB9A2FE28BE19FE02150804022
:1007C0009040E1F700C00000BB9878940895EFD006
:1007D00080912701882309F44FC08091130184FF81
:1007E0004BC08091FD009091FE00981721F08093FE
:1007F000FE0081E001C080E09091F70020910001AF
:10080000291719F09093000181E09091F800209150
:100810000101291719F09093010181E09091F900ED
:1008200020910201291719F09093020181E0909123
:10083000FA0020910301291719F09093030181E038
:100840009091FB0020910401291719F09093040165
:1008500081E09091FC0020910501291719F09093F7
:10086000050102C0813019F483DF81E008959FD033
:100870008091130184FD63DF80E00895FC01808195
:100880008076803281F58181813041F48EEF90E075
:10089000909323018093220188E00895823041F4EF
:1008A00083E790E0909323018093220181E00895F3
:1008B0008A3021F483818093730015C0893099F4C4
:1008C000828193818115924081F484819581892B65
:1008D00061F481E08093720086819781909371002A
:1008E0008093700002C080E008958FEF08952091FA
:1008F000700030917100232B71F020917200213033
:1009000051F4FC0180818093F600109271001092E6
:10091000700081E008958FEF0895CF93C82F47D0DE
:10092000809127018823D9F38091130184FFF7CFA9
:100930008C2F881F8827881F8295880F807E809340
:10094000FE00CF77C093000113DF31D080912701E3
:100950008823D9F38091130184FFF7CF1092FE0012
:100960001092000105DFCF9122C0CF93C62F2091B6
:10097000130124FF0BC03091140128E82327209392
:100980001401FC01A5E1B1E08C2F04C02AE52093FD
:100990001301F7CF91919D938150E1F76C2F85E181
:1009A00091E012DCCC5FC0931301CF910895CF93F7
:1009B000DF9360912401635067FDBEC080912101E7
:1009C000CCE0D0E0C81BD109C85DDE4F809120018A
:1009D0008D3209F0A0C0683009F0ACC083EC809380
:1009E00008018AE580936100109207018881807672
:1009F00031F0CE0143DF8F3F09F47CC082C09A8181
:100A0000109211018981811106C01092120121E119
:100A100031E082E06AC0853019F49093250162C00C
:100A2000863009F049C08B81813041F488E291E041
:100A3000909323018093220182E13AC0823041F4F5
:100A400086E091E0909323018093220182E230C0FE
:100A50008330C9F4911108C082E691E0909323019C
:100A60008093220184E024C0913019F48EE491E057
:100A700004C09230E1F48AE391E0909323018093E3
:100A8000220184E115C0813241F488E191E0909324
:100A900023018093220189E00BC0823241F487EC6C
:100AA00090E090932301809322018FE301C080E0C6
:100AB00090E49093070125C0883069F0893019F4DB
:100AC000909327010FC08A3049F08B3059F48BE4A2
:100AD0008093140107C027E231E002C021E131E038
:100AE00081E003C021E131E080E0309323012093D5
:100AF000220107C0988197FD8E8190E890930701AD
:100B000007C09F81911104C09E81981708F4892F16
:100B1000809360000FC08091070187FF0BC0CE015A
:100B2000E6DE8F3F21F48EE18093610003C08111E6
:100B300010926000109224018091610084FF45C0F2
:100B4000809160008F3F09F440C0C82F893008F0C1
:100B5000C8E08C1B809360009091080188E8892789
:100B600080930801CC2329F18091220190912301E7
:100B70002091070126FF0AC0A9E0B1E0FC012C2F5B
:100B800034913D9331962150D9F708C0DC01E9E05A
:100B9000F1E02C2F3D9131932150E1F72FEF2C0FF5
:100BA00030E02F5F3F4F820F931F9093230180937C
:100BB00022016C2F89E091E007DBCC5FCC3019F08B
:100BC0008FEF80936000C093610084E196B39871C9
:100BD00031F48150D9F71092250110921F01C1E024
:100BE0008111C0E090910601C91739F0882319F0EE
:100BF000F8945FDC7894C0930601DF91CF9108955B
:100C0000AC9A8BB780628BBFE3E1F1E08BE4818328
:0A0C10008AE580830895F894FFCF71
:100C1A00FF5A4C657373206973206D6F72652100EA
:00000001FF
