:1000000064C07EC097C07CC07BC07AC079C078C015
:1000100077C076C075C074C073C072C071C00B0861
:100020000F0F122C1A12150F079E05010906A101C8
:1000300075019508050719E029E7150025018102DA
:1000400095017508810395057501050819012905B4
:1000500091029501750391039506750815002568B1
:100060000507190029688100C0090222000101006A
:10007000803209040000010301010009210101008F
:1000800001223F000705810308000A120110010048
:10009000000008C016DB2700010102000114037AEA
:1000A00000690061006E005F006B006500790073FD
:1000B0000014037A00690061006E005F007600752D
:1000C0000073006200040309040011241FBECFE581
:1000D000D2E0DEBFCDBF10E0A0E6B0E0E4EAFBE096
:1000E00002C005900D92A236B107D9F721E0A2E631
:1000F000B0E001C01D92AF32B207E1F787D350C51F
:100100007FCFA82FB92F80E090E041E050EA6095C2
:1001100030E009C02D9182279795879510F08427AC
:100120009527305EC8F36F5FA8F30895EADF8D93DB
:100130009D930895CF93CFB7CF93C395B39BE9F722
:10014000B39B0BC0B39B09C0B39B07C0B39B05C057
:10015000B39B03C0B39B01C0D5C00F92DF93C09186
:100160001201DD27C75EDE4F012EB39B03C0DF9176
:100170000F90E6CF2F930F931F934F932FEF4F6F57
:1001800006B303FB20F95F933F9350E03BE065C06B
:1001900016B30126502953FDC89556B3012703FB1A
:1001A00025F92F7306B3B1F05027102713FB26F95A
:1001B00006B22230F0F000C016B3012703FB27F986
:1001C0000126502906B22430E8F54F77206816B38F
:1001D0000000F6CF50274F7D206206B2102F00009E
:1001E00000C006B300265029102713FB26F906B2DB
:1001F000E2CF4F7B06B3206400C0DACF012650293E
:10020000187106B269F14E7F2160012F16B328C024
:10021000002650294D7F06B22260102F29C00126EA
:1002200050294B7F06B22460012F2DC016B3012642
:100230005029477F2860000006B22EC04F7E06B3CB
:10024000206130C0422706B3499300265029102769
:1002500006B24FEF13FB20F9297F16B379F218711C
:1002600059F10126502906B2012703FB21F9237F0A
:1002700006B371F2002650293150D0F006B2102793
:1002800013FB22F9277E16B351F2012650290127CC
:1002900003FB06B223F92F7C49F2000006B31027B6
:1002A00013FB24F90026502906B22F7939F270CFBA
:1002B00010E21ABF002719C03B503195C31BD04034
:1002C00010E21ABF0881033C09F10B34F9F02091C8
:1002D00010011981110F1213EDCF4A81441F093605
:1002E00051F10D3211F0013E29F7009317013F91B2
:1002F0005F914F911F910F912F91DF910F90CAB78E
:10030000C5FD1BCFCF91CFBFCF911895209117017D
:10031000222369F310911501112379F534307AF114
:100320003093150120931101109112013BE0311B14
:100330003093120124C0009115010130F4F40AE554
:100340004F7049F43091610034FD1AC00093610090
:10035000C9EFD0E019C03091040134FD11C0009301
:100360000401C5E0D1E010C0052710E000C021C0A5
:10037000052710E0C89508BB14C03AE501C032ED6E
:10038000032EC0E0D0E032E017B31861C39A08B37F
:1003900017BB58E120E84FEF20FF052708BB279542
:1003A00017951C3F28F700004552B0F720FF05279E
:1003B000279508BB17951C3FB8F629913A9561F728
:1003C000077E10911601110F08BBC250D04011F0EA
:1003D0001093100110E21ABF086017B3177E402F68
:1003E000477E54E05A95F1F708BB17BB48BB7FCF57
:1003F000B898C09AB99AC198BA98C29A5CD0C0E02D
:1004000089EEE82E80E0F82E96E0D92EB09915C03E
:10041000CC2321F1CFE18091E80080FD1CC0C19880
:100420008091E80081FD17C0C1988091E80082FDAD
:1004300012C0C1984ED0B09BEBCF1092EF00F701E5
:100440008D2D11928A95E9F7CC2329F3C150809123
:10045000E80080FFE4CFC19A3CD0EDCF1092E900D4
:100460001092EA001092EB001092EC001092ED0056
:100470001092EE001092EF001BD0882359F2CEE1CB
:10048000D0E08150082F10E0015E1F4F80911801CD
:10049000882321F08091040184FD02C0D9D1F6CFD8
:1004A000FE01849116D121960C171D0779F7B2CF62
:1004B0008CE090E0089569D3BB9A2FE28BE19FE036
:1004C000215080409040E1F700C00000BB98789434
:1004D0000895BED180911801882309F48AC08091C3
:1004E000040184FF86C08091EF009091F00098177E
:1004F00009F481C08093F00081E09091E90020919F
:10050000F200291719F09093F20081E09091EA002F
:100510002091F300291719F09093F30081E0909156
:10052000EB002091F400291719F09093F40081E07A
:100530009091EC002091F500291719F09093F500A7
:1005400081E09091ED002091F600291761F19093E0
:10055000F6009091EE008091F70089139093F700D8
:10056000A0916700B0E0CD0101968F70992720918E
:100570006600281789F0AA0FBB1FAA0FBB1FAA0F7E
:10058000BB1FA859BF4F98E0E0EFF0E001900D923B
:100590009A95E1F7809367005BD18091040184FD17
:1005A0002CC081E008959091EE002091F70029136E
:1005B000D5CF8130A9F24CD18091040184FF19C0BC
:1005C0008091660090916700981799F090E0880FED
:1005D000991F880F991F880F991F68E088599F4FAE
:1005E00016D18091660090E001968F7099278093D4
:1005F000660080E0089580E080CF80916600909151
:100600006700981771F290E0880F991F880F991F63
:10061000880F991F68E088599F4FF9D08091660034
:1006200090E001968F7099278093660081E008958D
:10063000FC0190819076903211F080E008958181E4
:10064000813069F0823099F08A3041F18930A9F720
:10065000828193818115924091F08FEF089580EF10
:1006600090E0909314018093130188E0089585E64B
:1006700090E0909314018093130181E008958481A8
:100680009581892B51F781E0809364008681978161
:1006900090936300809362008FEF0895838180932D
:1006A000650080E008952091620030916300232B63
:1006B00011F48FEF0895209164002130D1F7FC01EF
:1006C00080818093E800109263001092620081E0C4
:1006D0000895CF93C82FBCD0809118018823D9F3F7
:1006E0008091040184FFF7CF8C2F881F8827881FF3
:1006F0008295880F807E8093F000CF77C093F200C0
:10070000A0916700B0E0CD0101968F7099272091EC
:100710006600281789F0AA0FBB1FAA0FBB1FAA0FDC
:10072000BB1FA859BF4F98E0E0EFF0E001900D9299
:100730009A95E1F7809367008BD08091040184FD46
:1007400030C086D0809118018823D9F380910401AC
:1007500084FFF7CF1092F0001092F200A091670092
:10076000B0E0CD0101968F7099272091660028177F
:1007700089F0AA0FBB1FAA0FBB1FAA0FBB1FA85946
:10078000BF4F98E0E0EFF0E001900D929A95E1F70D
:10079000809367005DD08091040184FD1CC0CF91DF
:1007A00057C08091660090916700981751F290E0D1
:1007B000880F991F880F991F880F991F68E0885923
:1007C0009F4F25D08091660090E001968F70992709
:1007D00080936600B6CF809166009091670098176D
:1007E000F1F290E0880F991F880F991F880F991FC9
:1007F00068E088599F4F0BD08091660090E0019689
:100800008F70992780936600CF9122C0F1CDCF934E
:10081000C62F2091040124FF17C03091050128E85C
:10082000232720930501FC01A6E0B1E08C2F9191D4
:100830009D938150E1F76C2F86E091E077DCCC5FEF
:10084000C0930401CF9108952AE520930401EBCFD2
:10085000CF93DF9360911501635067FD14C0209121
:1008600012018CE090E0821B9109EC01C75EDE4F23
:10087000809111018D3209F478C08091F80087FDD4
:10088000ECC0109215018091610084FF61C06091FD
:1008900060006F3F09F45CC0693008F48EC0685096
:1008A000609360009091F90088E889278093F900AF
:1008B000CCE068E0A0911301B09114018091F800A0
:1008C00086FF8EC0FD0184918093FA0031968FEFF0
:1008D000860F09F42DC0E491E093FB00FD013296F0
:1008E000623031F1E491E093FC00FD013396633016
:1008F000F9F0E491E093FD00FD0134966430C1F01D
:10090000E491E093FE00FD013596653089F0E491B5
:10091000E093FF00FD013696663051F0E491E093DC
:100920000001FD013796673019F0E491E093010171
:1009300090E00196A80FB91FB0931401A093130182
:100940008AEF90E0F3DBCC3009F046C0C093610041
:1009500094E186B3887131F49150D9F71092160161
:1009600010921001DF91CF910895683009F089CF7E
:1009700083EC8093F9008AE5809361001092F8007F
:100980008881807609F073C09A8110920201898172
:1009900081117CC01092030122E031E082E03093AB
:1009A0001401209313019F81911104C09E81981717
:1009B00008F4892F8093600064CF109260009091BA
:1009C000F90088E889278093F90061115CC060E034
:1009D0008AEF90E0ABDBC4E08FEF80936000B6CF8E
:1009E0008C918093FA008FEF860F09F4A1CF1196B6
:1009F0009C9111979093FB00623009F499CF129665
:100A00009C9112979093FC00633009F491CF139658
:100A10009C9113979093FD00643009F489CF14964C
:100A20009C9114979093FE00653009F481CF159640
:100A30009C9115979093FF00663009F479CF169634
:100A40009C91169790930001673009F471CF179627
:100A50009C911797909301016BCFCE0124DE8F3FBD
:100A600029F1882309F40DCF109260000ACFCE013E
:100A7000DFDD8F3F09F097CF988197FD1BC090E88D
:100A80009093F80097CFC4E0C60F14CF8530A1F043
:100A9000863011F18830E1F08930A1F08A3099F187
:100AA0008B3051F122E031E080E079CF8EE180930C
:100AB0006100E7CE8E81E3CF9093160122E031E012
:100AC00080E06DCF9093180122E031E080E067CFA5
:100AD00028E131E081E063CF8B818130D1F1823038
:100AE00081F1833021F18132D1F0823281F080E0D6
:100AF00090E49093F80057CF8BE48093050122E0B7
:100B000031E080E04CCF22E031E081E048CF8AE262
:100B100090E090931401809313018FE3E9CF8BE76A
:100B200090E0909314018093130189E0E1CF91113B
:100B300018C085EC90E0909314018093130184E039
:100B4000D7CF89E690E0909314018093130182E25D
:100B5000CFCF8BE890E0909314018093130182E152
:100B6000C7CF913051F0923011F68DE990E090931B
:100B700014018093130184E1BBCF81EB90E090934B
:100B800014018093130184E1B3CFAC9A8BB78062D8
:100B90008BBFE4E0F1E08BE481838AE580830895F4
:040BA000F894FFCFF7
:020BA400FF5AF6
:00000001FF
