:100000004AC064C07DC062C061C060C05FC05EC0E5
:100010005DC05CC05BC05AC059C058C057C0050124
:100020000906A101050719E029E715002501750159
:1000300095088102950175082565190029658100DB
:10004000C0090222000101008032090400000103FE
:10005000010100092101010001222300070581039C
:1000600008000A1201100100000008DDDD12340052
:1000700001010200011203740069006E0079005F43
:10008000006B00650079000A037A00690061006E68
:1000900000040309040011241FBECFE5D2E0DEBF37
:1000A000CDBF10E0A0E6B0E0E4E7F7E002C00590C5
:1000B0000D92A236B107D9F720E0A2E6B0E001C068
:1000C0001D92AB39B207E1F70ED252C399CFA82FD8
:1000D000B92F80E090E041E050EA609530E009C03F
:1000E0002D9182279795879510F084279527305E6C
:1000F000C8F36F5FA8F30895EADF8D939D93089589
:10010000CF93CFB7CF93C395B39BE9F7B39B0BC006
:10011000B39B09C0B39B07C0B39B05C0B39B03C08F
:10012000B39B01C0D5C00F92DF93C0917E00DD2745
:10013000CB57DF4F012EB39B03C0DF910F90E6CF6B
:100140002F930F931F934F932FEF4F6F06B303FB24
:1001500020F95F933F9350E03BE065C016B3012662
:10016000502953FDC89556B3012703FB25F92F737A
:1001700006B3B1F05027102713FB26F906B2223040
:10018000F0F000C016B3012703FB27F90126502920
:1001900006B22430E8F54F77206816B30000F6CF9A
:1001A00050274F7D206206B2102F000000C006B31A
:1001B00000265029102713FB26F906B2E2CF4F7B09
:1001C00006B3206400C0DACF01265029187106B2A8
:1001D00069F14E7F2160012F16B328C000265029F7
:1001E0004D7F06B22260102F29C0012650294B7F77
:1001F00006B22460012F2DC016B301265029477F77
:100200002860000006B22EC04F7E06B3206130C0C9
:10021000422706B3499300265029102706B24FEF14
:1002200013FB20F9297F16B379F2187159F10126D1
:10023000502906B2012703FB21F9237F06B371F28F
:10024000002650293150D0F006B2102713FB22F9B6
:10025000277E16B351F201265029012703FB06B26F
:1002600023F92F7C49F2000006B3102713FB24F971
:100270000026502906B22F7939F270CF10E21ABF4A
:10028000002719C03B503195C31BD04010E21ABF64
:100290000881033C09F10B34F9F020917C001981AD
:1002A000110F1213EDCF4A81441F093651F10D325F
:1002B00011F0013E29F7009383003F915F914F9128
:1002C0001F910F912F91DF910F90CAB7C5FD1BCFE2
:1002D000CF91CFBFCF91189520918300222369F34E
:1002E00010918100112379F534307AF13093810037
:1002F00020937D0010917E003BE0311B30937E0007
:1003000024C0009181000130F4F40AE54F7049F4F3
:100310003091610034FD1AC000936100C5E6D0E061
:1003200019C03091700034FD11C000937000C1E716
:10033000D0E010C0052710E000C021C0052710E064
:10034000C89508BB14C03AE501C032ED032EC0E0E9
:10035000D0E032E017B31861C39A08B317BB58E175
:1003600020E84FEF20FF052708BB279517951C3F76
:1003700028F700004552B0F720FF0527279508BB56
:1003800017951C3FB8F629913A9561F7077E1091B1
:100390008200110F08BBC250D04011F010937C00B6
:1003A00010E21ABF086017B3177E402F477E54E053
:1003B0005A95F1F708BB17BB48BB7FCFB8D1BB9AA2
:1003C0002FE28BE19FE0215080409040E1F700C098
:1003D0000000BB98789408950F931F93CF93DF93F9
:1003E000109263001092640080E090E0ABD1082F7F
:1003F000C1E0D0E08C2F81508017D0F5809184002F
:100400008823A1F18091700084FF30C0CE019AD181
:10041000182F8CD0809184008823D9F380917000AC
:1004200084FFF7CF812F881F8827881F8295880F28
:10043000807E809363001F771093640062E083E600
:1004400090E052D073D0809184008823D9F38091BA
:10045000700084FFF7CF109263001092640062E096
:1004600083E690E041D062D02196C4CF5FD0C6CF62
:10047000DF91CF911F910F910895B898B99ABA98CA
:10048000C09AC198C29A9ADFC0E0B09904C0C11165
:1004900006C0A2DF04C0C111C15048D0F6CFC0E2EF
:1004A000FBCF23E630E03093800020937F00FC01F7
:1004B000208120762034A9F42181223049F4E19969
:1004C000FECFFC018481628190E044D1C19A09C0D1
:1004D000233019F4E199FECF03C0213011F48CB31D
:1004E000C19880E00895C9CFCF93C62F20917000A6
:1004F00024FF0BC03091710028E82327209371005E
:10050000FC01A2E7B0E08C2F04C02AE52093700024
:10051000F7CF91919D938150E1F76C2F82E790E0A6
:10052000EBDDCC5FC0937000CF910895CF93DF9344
:1005300080918100835087FDA3C090917D009D3202
:1005400009F09CC0883009F099C080917E00CCE011
:10055000D0E0C81BD109CB57DF4F83EC80936500F7
:100560008AE580936100109262008881807619F09C
:10057000CE0197DF7AC09A8110926E008981811135
:1005800006C010926F002EE630E082E06AC085302F
:1005900019F49093820062C0863009F049C08B81C3
:1005A000813019F483E690E024C0823041F481E484
:1005B00090E09093800080937F0082E235C083308A
:1005C000F1F4911108C081E990E09093800080934C
:1005D0007F0084E029C0913041F487E890E0909357
:1005E000800080937F008AE01FC09230E1F485E7AD
:1005F00090E09093800080937F0082E115C081326B
:1006000041F483E590E09093800080937F0089E03F
:100610000BC0823241F48EE190E090938000809391
:100620007F0083E201C080E090E4909362001DC0EF
:10063000883069F0893019F4909384000FC08A30B3
:1006400049F08B3059F48BE48093710007C024E8A3
:1006500030E002C02EE630E081E003C02EE630E05C
:1006600080E03093800020937F009F81911104C02F
:100670009E81981708F4892F809360001092810062
:100680008091610084FF46C0809160008F3F09F433
:1006900041C0C82F893008F0C8E08C1B80936000EF
:1006A0009091650088E8892780936500CC2331F11B
:1006B00040917F00509180008091620086FF0AC0C7
:1006C000A6E6B0E0FA019C2F84918D93319691506B
:1006D000D9F708C0DA01E6E6F0E09C2F8D9181930E
:1006E0009150E1F72FEF2C0F30E02F5F3F4FCA0101
:1006F000820F931F9093800080937F006C2F86E67B
:1007000090E0FADCCC5FCC3019F08FEF8093600082
:10071000C093610084E196B3987131F48150D9F7A8
:100720001092820010927C00DF91CF910895AC9AD4
:100730008BB780628BBFE0E7F0E08BE481838AE5D2
:1007400080830895E199FECF9FBB8EBBE09A9927E5
:100750008DB30895262FE199FECF1CBA9FBB8EBBA7
:100760002DBB0FB6F894E29AE19A0FBE0196089558
:04077000F894FFCF2B
:02077400FF5A2A
:00000001FF
