:100000000EC028C054C026C025C024C023C022C0B2
:1000100021C020C01FC01EC01DC01CC01BC0112499
:100020001FBECFE5D2E0DEBFCDBF10E0A0E6B0E05E
:10003000E4EAF3E002C005900D92A236B107D9F7C9
:1000400020E0A2E6B0E001C01D92A839B207E1F7B6
:100050008CD1A6C1D5CFA82FB92F80E090E041E088
:1000600050EA609530E009C02D91822797958795D9
:1000700010F084279527305EC8F36F5FA8F30895CA
:10008000EADF8D939D930895A6E088279927AA9586
:1000900069F00197E1F3B399FCCFB39BFECF81E008
:1000A0009927A6B3019611F0A871D9F70895CF93B7
:1000B000CFB7CF93C395B39BE9F7B39B0BC0B39B6B
:1000C00009C0B39B07C0B39B05C0B39B03C0B39BE0
:1000D00001C0D5C00F92DF93C0917B00DD27CE57C2
:1000E000DF4F012EB39B03C0DF910F90E6CF2F931C
:1000F0000F931F934F932FEF4F6F06B303FB20F91E
:100100005F933F9350E03BE065C016B30126502952
:1001100053FDC89556B3012703FB25F92F7306B38A
:10012000B1F05027102713FB26F906B22230F0F069
:1001300000C016B3012703FB27F90126502906B298
:100140002430E8F54F77206816B30000F6CF50272B
:100150004F7D206206B2102F000000C006B30026BB
:100160005029102713FB26F906B2E2CF4F7B06B3C6
:10017000206400C0DACF01265029187106B269F157
:100180004E7F2160012F16B328C0002650294D7FD5
:1001900006B22260102F29C0012650294B7F06B2DB
:1001A0002460012F2DC016B301265029477F2860F7
:1001B000000006B22EC04F7E06B3206130C0422739
:1001C00006B3499300265029102706B24FEF13FBC0
:1001D00020F9297F16B379F2187159F101265029B7
:1001E00006B2012703FB21F9237F06B371F2002633
:1001F00050293150D0F006B2102713FB22F9277E88
:1002000016B351F201265029012703FB06B223F948
:100210002F7C49F2000006B3102713FB24F90026B7
:10022000502906B22F7939F270CF10E21ABF002799
:1002300019C03B503195C31BD04010E21ABF088152
:10024000033C09F10B34F9F0209179001981110F69
:100250001213EDCF4A81441F093651F10D3211F0CE
:10026000013E29F7009380003F915F914F911F91CC
:100270000F912F91DF910F90CAB7C5FD1BCFCF9182
:10028000CFBFCF91189520918000222369F3109160
:100290007E00112379F534307AF130937E0020937B
:1002A0007A0010917B003BE0311B30937B0024C02F
:1002B00000917E000130F4F40AE54F7049F430916A
:1002C000600034FD1AC000936000C2E6D0E019C09F
:1002D00030916D0034FD11C000936D00CEE6D0E08A
:1002E00010C0052710E000C021C0052710E0C89508
:1002F00008BB14C03AE501C032ED032EC0E0D0E0E7
:1003000032E017B31861C39A08B317BB58E120E86D
:100310004FEF20FF052708BB279517951C3F28F7AF
:1003200000004552B0F720FF0527279508BB179519
:100330001C3FB8F629913A9561F7077E10917F002E
:10034000110F08BBC250D04011F01093790010E299
:100350001ABF086017B3177E402F477E54E05A95A6
:10036000F1F708BB17BB48BB7FCF01D0FFCF0DD043
:10037000BB9A2FE28BE19FE0215080409040E1F753
:1003800000C00000BB9878940895AC9A8BB7806247
:100390008BBFEDE6F0E08BE481838AE580830895EE
:0403A000F894FFCFFF
:0203A4005A00FD
:00000001FF
