:1000000040C05AC073C058C057C056C055C054C035
:1000100053C052C051C050C04FC04EC04DC00B085D
:100020000F0F122C1A12150F079E09021900010159
:10003000008032090400000103010100070581036B
:1000400008000A1201100100000008EDFE11110065
:10005000010102000114037A00690061006E005F73
:10006000006B0065007900730014037A0069006179
:10007000006E005F007600750073006200040309E3
:10008000040011241FBECFE5D2E0DEBFCDBF10E0DB
:10009000A0E6B0E0E4E1F9E002C005900D92A236DE
:1000A000B107D9F721E0A2E6B0E001C01D92AF325E
:1000B000B207E1F7F9D22CC4A3CFA82FB92F80E063
:1000C00090E041E050EA609530E009C02D91822730
:1000D0009795879510F084279527305EC8F36F5F5A
:1000E000A8F30895EADF8D939D930895CF93CFB73A
:1000F000CF93C395B39BE9F7B39B0BC0B39B09C0E8
:10010000B39B07C0B39B05C0B39B03C0B39B01C0A7
:10011000D5C00F92DF93C0911201DD27C75EDE4F7D
:10012000012EB39B03C0DF910F90E6CF2F930F9367
:100130001F934F932FEF4F6F06B303FB20F95F938D
:100140003F9350E03BE065C016B30126502953FDB4
:10015000C89556B3012703FB25F92F7306B3B1F0F9
:100160005027102713FB26F906B22230F0F000C00A
:1001700016B3012703FB27F90126502906B22430C4
:10018000E8F54F77206816B30000F6CF50274F7D73
:10019000206206B2102F000000C006B300265029CE
:1001A000102713FB26F906B2E2CF4F7B06B320647B
:1001B00000C0DACF01265029187106B269F14E7FCE
:1001C0002160012F16B328C0002650294D7F06B2AA
:1001D0002260102F29C0012650294B7F06B22460CF
:1001E000012F2DC016B301265029477F286000003B
:1001F00006B22EC04F7E06B3206130C0422706B340
:10020000499300265029102706B24FEF13FB20F91F
:10021000297F16B379F2187159F10126502906B2D7
:10022000012703FB21F9237F06B371F20026502931
:100230003150D0F006B2102713FB22F9277E16B3F7
:1002400051F201265029012703FB06B223F92F7C26
:1002500049F2000006B3102713FB24F900265029A9
:1002600006B22F7939F270CF10E21ABF002719C0F9
:100270003B503195C31BD04010E21ABF0881033CAC
:1002800009F10B34F9F0209110011981110F1213AB
:10029000EDCF4A81441F093651F10D3211F0013E74
:1002A00029F7009317013F915F914F911F910F9193
:1002B0002F91DF910F90CAB7C5FD1BCFCF91CFBF54
:1002C000CF91189520911701222369F31091150100
:1002D000112379F534307AF130931501209311010F
:1002E000109112013BE0311B3093120124C00091A8
:1002F00015010130F4F40AE54F7049F430916100C2
:1003000034FD1AC000936100C9EFD0E019C03091EC
:10031000040134FD11C000930401C5E0D1E010C018
:10032000052710E000C021C0052710E0C89508BBD4
:1003300014C03AE501C032ED032EC0E0D0E032E057
:1003400017B31861C39A08B317BB58E120E84FEF01
:1003500020FF052708BB279517951C3F28F70000AD
:100360004552B0F720FF0527279508BB17951C3F7E
:10037000B8F629913A9561F7077E10911601110F91
:1003800008BBC250D04011F01093100110E21ABF08
:10039000086017B3177E402F477E54E05A95F1F757
:1003A00008BB17BB48BB7FCFE9EEF0E0108211829B
:1003B00012821382148215821092EF0008950F9317
:1003C0001F93CF93DF93F0DF56D0D82F0EE110E0CC
:1003D000C0E0CD1788F480911801882359F08091EE
:1003E000040184FF07C0F801849136D1CF5F0F5F0D
:1003F0001F4FEFCF7CD1EFCFDF91CF911F910F91A6
:100400000895B898C09AB99AC198BA98C29A70D00B
:10041000C0E009EE10E0D6E0EE24E394F12CB099B0
:1004200004C0C11126C0CBDF24C01092EF00F80138
:100430008D2F11928A95E9F7C111C15020E030E06B
:100440008091E80090E0A701022E02C0440F551FE2
:100450000A94E2F7842395234817590711F4C19AA7
:1004600006C0C1982F5F3F4F2330310549F74ED06A
:10047000D6CFC0E2E2CF8CE090E008958091660094
:1004800090916700981791F090E023E0880F991FF2
:100490002A95E1F768E088599F4F07D1809166005F
:1004A00090E001968F709927809366000895A0913F
:1004B0006700B0E0CD0101968F709927209166000A
:1004C000281781F093E0AA0FBB1F9A95E1F7A8596E
:1004D000BF4F98E0E0EFF0E001900D929A95E1F7C0
:1004E0008093670004D18091040184FDC7CF0895F3
:1004F00004D2BB9A2FE28BE19FE0215080409040D4
:10050000E1F700C00000BB9878940895F0D0809186
:100510001801882309F44FC08091040184FF4BC067
:100520008091EF009091F000981721F08093F000F7
:1005300081E001C080E09091E9002091F20029174C
:1005400019F09093F20081E09091EA002091F3007D
:10055000291719F09093F30081E09091EB0020911E
:10056000F400291719F09093F40081E09091EC00C9
:100570002091F500291719F09093F50081E09091F2
:10058000ED002091F600291719F09093F60081E014
:100590009091EE002091F700291719F09093F70041
:1005A00002C0813019F483DF81E00895A0D08091EA
:1005B000040184FD63DF80E00895FC018081807682
:1005C000803281F58181813041F480EF90E0909319
:1005D00014018093130188E00895823041F485E688
:1005E00090E0909314018093130181E008958A3084
:1005F00021F483818093650015C0893099F482814C
:1006000093818115924081F484819581892B61F4D5
:1006100081E080936400868197819093630080934A
:10062000620002C080E008958FEF0895209162007B
:1006300030916300232B71F020916400213051F43C
:10064000FC0180818093E8001092630010926200A8
:1006500081E008958FEF0895CF93C82F48D08091FF
:1006600018018823D9F38091040184FFF7CF8C2FE0
:10067000881F8827881F8295880F807E8093F000CE
:10068000CF77C093F20013DF32D080911801882316
:10069000D9F38091040184FFF7CF1092F0001092FB
:1006A000F20005DFCF9123C0ACCECF93C62F2091AF
:1006B000040124FF0BC03091050128E82327209373
:1006C0000501FC01A6E0B1E08C2F04C02AE52093CF
:1006D0000401F7CF91919D938150E1F76C2F86E053
:1006E00091E000DDCC5FC0930401CF910895CF93DA
:1006F000DF9360911501635067FDA9C080911201DD
:10070000CCE0D0E0C81BD109C75EDE4F809111015B
:100710008D3209F08BC0683009F097C083EC80936C
:10072000F9008AE5809361001092F8008881807654
:1007300031F0CE0142DF8F3F09F467C06DC09A816E
:10074000109202018981811106C01092030122E0FA
:1007500031E082E055C0853019F4909316014DC008
:100760008630A9F58B81813041F483E490E0909349
:1007700014018093130182E126C0823041F48AE2A1
:1007800090E0909314018093130189E11CC08330A1
:10079000C9F4911108C08DE790E090931401809303
:1007A000130184E010C0913019F489E690E004C090
:1007B000923041F485E590E0909314018093130109
:1007C00084E101C080E090E49093F80025C0883077
:1007D00069F0893019F4909318010FC08A3049F0FC
:1007E0008B3059F48BE48093050107C028E131E098
:1007F00002C022E031E081E003C022E031E080E08D
:10080000309314012093130107C0988197FD8E81C6
:1008100090E89093F80007C09F81911104C09E81D9
:10082000981708F4892F809360000FC08091F8001A
:1008300087FF0BC0CE01FADE8F3F21F48EE180935B
:10084000610003C081111092600010921501809127
:10085000610084FF45C0809160008F3F09F440C073
:10086000C82F893008F0C8E08C1B809360009091FD
:10087000F90088E889278093F900CC2329F1809139
:100880001301909114012091F80026FF0AC0AAEFED
:10089000B0E0FC012C2F34913D9331962150D9F7D3
:1008A00008C0DC01EAEFF0E02C2F3D91319321509C
:1008B000E1F72FEF2C0F30E02F5F3F4F820F931F98
:1008C00090931401809313016C2F8AEF90E00ADC5F
:1008D000CC5FCC3019F08FEF80936000C093610043
:1008E00084E196B3987131F48150D9F710921601D2
:1008F00010921001DF91CF910895AC9A8BB780626E
:100900008BBFE4E0F1E08BE481838AE58083089586
:04091000F894FFCF89
:02091400FF5A88
:00000001FF
