:100000004AC064C07DC062C061C060C05FC05EC0E5
:100010005DC05CC05BC05AC059C058C057C0050124
:100020000906A101050719E029E715002501750159
:1000300095088102950175082565190029658100DB
:10004000C0090222000101008032090400000103FE
:10005000010100092101010001222300070581039C
:1000600008000A1201100100000008DDDD12340052
:1000700001010200011203740069006E0079005F43
:10008000006B00650079000A037A00690061006E68
:1000900000040309040011241FBECFE5D2E0DEBF37
:1000A000CDBF10E0A0E6B0E0E6E2FAE002C00590C5
:1000B0000D92A436B107D9F720E0A4E6B0E001C064
:1000C0001D92AD39B207E1F7C6D2ABC499CFA82FC4
:1000D000B92F80E090E041E050EA609530E009C03F
:1000E0002D9182279795879510F084279527305E6C
:1000F000C8F36F5FA8F30895EADF8D939D93089589
:10010000CF93CFB7CF93C395B39BE9F7B39B0BC006
:10011000B39B09C0B39B07C0B39B05C0B39B03C08F
:10012000B39B01C0D5C00F92DF93C0918000DD2743
:10013000C957DF4F012EB39B03C0DF910F90E6CF6D
:100140002F930F931F934F932FEF4F6F06B303FB24
:1001500020F95F933F9350E03BE065C016B3012662
:10016000502953FDC89556B3012703FB25F92F737A
:1001700006B3B1F05027102713FB26F906B2223040
:10018000F0F000C016B3012703FB27F90126502920
:1001900006B22430E8F54F77206816B30000F6CF9A
:1001A00050274F7D206206B2102F000000C006B31A
:1001B00000265029102713FB26F906B2E2CF4F7B09
:1001C00006B3206400C0DACF01265029187106B2A8
:1001D00069F14E7F2160012F16B328C000265029F7
:1001E0004D7F06B22260102F29C0012650294B7F77
:1001F00006B22460012F2DC016B301265029477F77
:100200002860000006B22EC04F7E06B3206130C0C9
:10021000422706B3499300265029102706B24FEF14
:1002200013FB20F9297F16B379F2187159F10126D1
:10023000502906B2012703FB21F9237F06B371F28F
:10024000002650293150D0F006B2102713FB22F9B6
:10025000277E16B351F201265029012703FB06B26F
:1002600023F92F7C49F2000006B3102713FB24F971
:100270000026502906B22F7939F270CF10E21ABF4A
:10028000002719C03B503195C31BD04010E21ABF64
:100290000881033C09F10B34F9F020917E001981AB
:1002A000110F1213EDCF4A81441F093651F10D325F
:1002B00011F0013E29F7009385003F915F914F9126
:1002C0001F910F912F91DF910F90CAB7C5FD1BCFE2
:1002D000CF91CFBFCF91189520918500222369F34C
:1002E00010918300112379F534307AF13093830033
:1002F00020937F00109180003BE0311B3093800001
:1003000024C0009183000130F4F40AE54F7049F4F1
:100310003091620034FD1AC000936200C7E6D0E05D
:1003200019C03091720034FD11C000937200C3E710
:10033000D0E010C0052710E000C021C0052710E064
:10034000C89508BB14C03AE501C032ED032EC0E0E9
:10035000D0E032E017B31861C39A08B317BB58E175
:1003600020E84FEF20FF052708BB279517951C3F76
:1003700028F700004552B0F720FF0527279508BB56
:1003800017951C3FB8F629913A9561F7077E1091B1
:100390008400110F08BBC250D04011F010937E00B2
:1003A00010E21ABF086017B3177E402F477E54E053
:1003B0005A95F1F708BB17BB48BB7FCFEDD2BB9A6C
:1003C0002FE28BE19FE0215080409040E1F700C098
:1003D0000000BB9878940895FF920F931F93CF93DA
:1003E000DF938C015AD1809186008823D9F38091C4
:1003F000720084FFF7CF80E480936500109266005E
:1004000062E085E690E028D148D1E8010B5F1F4FFC
:1004100082E6F82E42D1809186008823D9F380911C
:10042000720084FFF7CFF09266008991882319F05B
:10043000885A8093660062E085E690E00DD12DD168
:100440002CD1809186008823D9F38091720084FF9B
:10045000F7CF1092660062E085E690E0FDD01DD1F6
:100460000C171D07B9F619D1809186008823D9F39E
:100470008091720084FFF7CF1092650010926600A1
:1004800062E085E690E0E8D0DF91CF911F910F9177
:10049000FF9003C1FC0185E690E090938200809379
:1004A000810090819076903449F48181863141F0C9
:1004B000883079F08330A9F08130D1F080E0089560
:1004C000E199FECF628173818481958197D2C19A2F
:1004D000F5CFE199FECF62818481958181D2C19A65
:1004E000EDCFE199FECFC19881E080936000E6CF27
:1004F000109260008CB3C198E1CFCF93DF9300D00E
:1005000000D01F92CDB7DEB7B898B99ABA98C09A02
:10051000C198C29A53DF10E04AE0C42ED12C54E6B1
:10052000852E912C68EE662E63E0762E70E1472EC4
:1005300077E2572E33243394B0990AC0111104C0C6
:1005400080916000811109C01FE1A7D0B09BF6CF58
:100550001123D9F31150A1D0F9CF1092600010925D
:1005600065001092660080E090E035D25C01892B36
:1005700009F1EE24E394F12C80918600882321F088
:100580008091720084FD02C088D0F6CFC701880F29
:10059000991F21D28C0111113EC0282E81110EC04D
:1005A000AE14BF0439F08FEFE81AF80AE11481E0C5
:1005B000F80611F7309260001FE1C7CF6ED080912E
:1005C00086008823D9F38091720084FFF7CF221C24
:1005D0002224221C2294220C80EE282220926500E4
:1005E0000F770093660062E085E690E035D055D045
:1005F00054D0809186008823D9F38091720084FFC3
:10060000F7CF109265001092660062E085E690E0F8
:1006100023D043D0C5CF00681068C801B601C7D148
:100620008D83CB01B601C3D18C83C801B401BFD186
:10063000CB01B601BCD18B83C801B301B8D1CB01CA
:10064000B601B5D18A83C801B201B1D16983CE01A7
:100650000196C2DEA5CF51CFCF93C62F2091720055
:1006600024FF17C03091730028E8232720937300DC
:10067000FC01A4E7B0E08C2F91919D938150E1F7AC
:100680006C2F84E790E038DDCC5FC0937200CF918F
:1006900008952AE520937200EBCFCF93DF938091EA
:1006A0008300835087FD07C090917F009D3209F43D
:1006B00074C0109283008091620084FF61C06091D9
:1006C00061006F3F09F45CC0693008F496C068505F
:1006D000609361009091670088E8892780936700A4
:1006E000CCE068E0A0918100B0918200809164002C
:1006F00086FF96C0FD0184918093680031968FEF4C
:10070000860F09F42DC0E491E0936900FD01329653
:10071000623031F1E491E0936A00FD013396633079
:10072000F9F0E491E0936B00FD0134966430C1F080
:10073000E491E0936C00FD013596653089F0E49119
:10074000E0936D00FD013696663051F0E491E09340
:100750006E00FD013796673019F0E491E0936F0069
:1007600090E00196A80FB91FB0938200A09381007A
:1007700088E690E0C1DCCC3009F04EC0C093620046
:1007800094E186B3887131F49150D9F710928400C6
:1007900010927E00DF91CF910895883009F089CFC3
:1007A00080918000CCE0D0E0C81BD109C957DF4F51
:1007B00083EC809367008AE5809362001092640066
:1007C0008881807609F069C09A81109270008981D1
:1007D000811169C01092710020E730E082E030930F
:1007E0008200209381009F81911104C09E819817FF
:1007F00008F4892F809361005CCF10926100909182
:10080000670088E8892780936700611149C060E02C
:1008100088E690E071DCC4E08FEF80936100AECF9A
:100820008C91809368008FEF860F09F499CF119611
:100830009C91119790936900623009F491CF1296C0
:100840009C91129790936A00633009F489CF1396B4
:100850009C91139790936B00643009F481CF1496A8
:100860009C91149790936C00653009F479CF15969C
:100870009C91159790936D00663009F471CF169690
:100880009C91169790936E00673009F469CF179684
:100890009C91179790936F0063CFCE01FBDDA3CFA0
:1008A000C4E0C60F1FCF853071F0863039F1883033
:1008B00081F08930B1F08A3081F08B30C1F020E7CF
:1008C00030E080E08CCF9093840020E730E080E03F
:1008D00086CF26E830E081E082CF20E730E081E07B
:1008E0007ECF9093860020E730E080E078CF8BE4E5
:1008F0008093730020E730E080E071CF8B818130FE
:1009000069F0823069F1833009F18132B9F08232C5
:1009100069F080E090E49093640065CF83E690E016
:10092000909382008093810082E1F4CF8EE190E089
:10093000909382008093810083E2ECCF83E590E086
:10094000909382008093810089E0E4CF911110C0E0
:1009500081E990E0909382008093810084E0DACF77
:1009600081E490E0909382008093810082E2D2CF74
:10097000913051F0923069F685E790E090938200D3
:100980008093810082E1C6CF87E890E09093820057
:10099000809381008AE0BECFAC9A8BB780628BBF18
:1009A000E2E7F0E08BE481838AE580830895AA1B67
:1009B000BB1B51E107C0AA1FBB1FA617B70710F04A
:1009C000A61BB70B881F991F5A95A9F7809590957C
:1009D000BC01CD010895A8E1B0E042E050E013C0B1
:1009E000262FE199FECF1CBA9FBB8EBB2DBB0FB645
:1009F000F894E29AE19A0FBE01960895F1DF272F4D
:100A0000F0CFDC01CB01FC01E199FECF06C0FFBBBA
:100A1000EEBBE09A31960DB20D9241505040B8F7BE
:060A20000895F894FFCFD9
:040A260001FF5A0072
:00000001FF
