:1000000073C08DC0B9C08BC08AC089C088C087C08A
:1000100086C085C084C083C082C081C080C059C2F0
:100020005EC263C268C26DC272C277C284C289C234
:100030008EC293C298C29DC2A2C2AFC2B1C2B3C2A5
:10004000B5C2B7C2B9C2BBC205010906A10175019B
:100050009508050719E029E715002501810295019A
:100060007508810395057501050819012905910297
:100070009501750391039506750815002568050718
:10008000190029688100C0090222000101008032A4
:1000900009040000010301010009210101000122FE
:1000A0003F000705810308000A120110010000004B
:1000B00008C016DB2700010102000114037A006961
:1000C0000061006E005F006B006500790073001432
:1000D000037A00690061006E005F007600750073AE
:1000E000006200040309040011241FBECFE5D2E022
:1000F000DEBFCDBF10E0A0E6B0E0EEEAFBE002C05C
:1001000005900D92A236B107D9F721E0A2E6B0E042
:1001100001C01D92A033B207E1F756D246C570CF99
:10012000A82FB92F80E090E041E050EA609530E0E0
:1001300009C02D9182279795879510F084279527E0
:10014000305EC8F36F5FA8F30895EADF8D939D9347
:100150000895A6E088279927AA9569F00197E1F309
:10016000B399FCCFB39BFECF81E09927A6B301964C
:1001700011F0A871D9F70895CF93CFB7CF93C39556
:10018000B39BE9F7B39B0BC0B39B09C0B39B07C0FC
:10019000B39B05C0B39B03C0B39B01C0D5C00F92F6
:1001A000DF93C0911301DD27C65EDE4F012EB39BA6
:1001B00003C0DF910F90E6CF2F930F931F934F93C0
:1001C0002FEF4F6F06B303FB20F95F933F9350E08F
:1001D0003BE065C016B30126502953FDC89556B3C0
:1001E000012703FB25F92F7306B3B1F05027102721
:1001F00013FB26F906B22230F0F000C016B3012737
:1002000003FB27F90126502906B22430E8F54F7781
:10021000206816B30000F6CF50274F7D206206B24B
:10022000102F000000C006B300265029102713FB32
:1002300026F906B2E2CF4F7B06B3206400C0DACFC6
:1002400001265029187106B269F14E7F2160012FF5
:1002500016B328C0002650294D7F06B22260102F09
:1002600029C0012650294B7F06B22460012F2DC0E2
:1002700016B301265029477F2860000006B22EC021
:100280004F7E06B3206130C0422706B34993002653
:100290005029102706B24FEF13FB20F9297F16B320
:1002A00079F2187159F10126502906B2012703FB92
:1002B00021F9237F06B371F2002650293150D0F086
:1002C00006B2102713FB22F9277E16B351F201263E
:1002D0005029012703FB06B223F92F7C49F20000C5
:1002E00006B3102713FB24F90026502906B22F79F4
:1002F00039F270CF10E21ABF002719C03B50319578
:10030000C31BD04010E21ABF0881033C09F10B3433
:10031000F9F0209111011981110F1213EDCF4A81CB
:10032000441F093651F10D3211F0013E29F70093B7
:1003300018013F915F914F911F910F912F91DF9184
:100340000F90CAB7C5FD1BCFCF91CFBFCF911895E6
:1003500020911801222369F310911601112379F5D8
:1003600034307AF130931601209312011091130169
:100370003BE0311B3093130124C000911601013082
:10038000F4F40AE54F7049F43091610034FD1AC06D
:1003900000936100CAEFD0E019C03091050134FD2F
:1003A00011C000930501C6E0D1E010C0052710E0A0
:1003B00000C021C0052710E0C89508BB14C03AE56D
:1003C00001C032ED032EC0E0D0E032E017B3186177
:1003D000C39A08B317BB58E120E84FEF20FF052769
:1003E00008BB279517951C3F28F700004552B0F72A
:1003F00020FF0527279508BB17951C3FB8F62991C4
:100400003A9561F7077E10911701110F08BBC25092
:10041000D04011F01093110110E21ABF086017B319
:10042000177E402F477E54E05A95F1F708BB17BB63
:1004300048BB7FCFDF92EF92FF920F931F93CF9332
:10044000DF936894EE24E3F8F12CD12C10E80D2D05
:10045000010F01BF7EDEEC01C43389E0D8070CF444
:10046000D02E169581E0E81AF10889F78FEF8D0DEF
:1004700081BF81B70D2D10E00F5F1F4F90E008176F
:100480001907B4F066DE845399409C0122F42227B8
:100490003327281B390B2C173D0714F4D1B6E9017B
:1004A00091B79F5F91BF21B730E00217130754F750
:1004B000D1BEDF91CF911F910F91FF90EF90DF9010
:1004C000089590E08730910568F5FC01E15FFF4FEA
:1004D0000994662311F0B89A0895B8980895662390
:1004E00011F0B99A0895B9980895662311F0BA9A4F
:1004F0000895BA980895662311F0BB9A0895BB98A1
:100500000895662311F0BC9A0895BC980895662357
:1005100011F0BD9A0895BD980895662311F0BE9A12
:100520000895BE98089590E08730910568F5FC0124
:10053000EA5EFF4F0994662311F0C09A0895C098AF
:100540000895662311F0C19A0895C198089566230D
:1005500011F0C29A0895C2980895662311F0C39AC3
:100560000895C3980895662311F0C49A0895C49815
:100570000895662311F0C59A0895C59808956623D5
:1005800011F0C69A0895C698089590E087309105B5
:10059000C8F4FC01E35EFF4F099486B381700895AF
:1005A00086B38270089586B38470089586B3887088
:1005B000089586B38071089586B38072089586B3D6
:1005C0008074089580E0089560E080E07ADF61E063
:1005D00080E0A9DF61E081E074DF60E081E0A3DF1B
:1005E00060E082E06EDF61E082E09DDF75D009EEC1
:1005F00010E00F2EF6E09F2EF02DDD24D3946894AA
:10060000AA24A2F8B12CC12CEE24E394F12C80E0B2
:10061000BCDF81110AC01092EF00F801A0821182A4
:10062000128213821482158230C082E0AEDF811103
:1006300008C0D092EF00F801892D11928A95E9F750
:1006400024C01092EF00F801892D11928A95E9F7E4
:100650001CC02091E80030E0A7010C2E02C0440F1E
:10066000551F0A94E2F7242335234217530721F438
:100670006D2D8D2D58DF03C060E08D2D54DF219648
:10068000C330D10531F736D0C2CFCB2DDC2DE1CF31
:100690008091050184FF1FC08091660090916700E2
:1006A0009817C9F090E0880F991F880F991F880F3D
:1006B000991F68E088599F4FF8D08091660090E0BC
:1006C00001968F709078992324F40197806F9F6F23
:1006D00001968093660008955DD2BB9A2FE28BE16C
:1006E0009FE0215080409040E1F700C00000BB989F
:1006F00078940895CF93FBD080911901882309F451
:1007000076C08091050184FF74C08091EF009091C4
:10071000F000981721F08093F000C1E001C0C0E024
:100720008091E9009091F200981719F08093F200FF
:10073000C1E08091EA009091F300981719F080933E
:10074000F300C1E08091EB009091F400981719F04C
:100750008093F400C1E08091EC009091F50098172F
:1007600019F08093F500C1E08091ED009091F600C2
:10077000981749F0E0EFF0E086838091EE009781D2
:10078000981307C00BC08091EE009091F700981766
:1007900019F08093F70002C0C13031F5A0916700D5
:1007A000B0E0CD0101968F709078992324F40197E1
:1007B000806F9F6F019620916600281789F0AA0F1D
:1007C000BB1FAA0FBB1FAA0FBB1FA859BF4F98E0A2
:1007D000E0EFF0E001900D929A95E1F780936700C9
:1007E00086D056DFC1E006C082D052DF03C0C0E031
:1007F00001C0C0E08C2FCF910895FC0190819076CC
:10080000903299F58181813041F480EF90E09093AE
:1008100015018093140188E00895823041F485E643
:1008200090E0909315018093140181E008958A303F
:1008300029F483818093650080E008958930B9F4BC
:100840008281938181159240A1F484819581892BC5
:1008500091F4A2E6B0E081E012968C931297868123
:1008600097818D939C938FEF089580E0089580E0A9
:1008700008958FEF08958FEF0895209162003091D1
:100880006300232B71F020916400213061F4FC019E
:1008900080818093E800109263001092620081E0F2
:1008A00008958FEF08958FEF0895CF93C62F20916D
:1008B000050124FF07C0E5E0F1E0318128E82327A6
:1008C000218303C02AE520930501E82FF92FA7E033
:1008D000B1E08C2F91919D938150E1F76C2F87E0CF
:1008E00091E033DCCC5FC0930501CF910895CF93A5
:1008F000DF936091160163500AF4CFC02091130179
:100900008CE090E0821B9109EC01C65EDE4F809185
:1009100012018D3209F0B0C0683009F0BCC083EC20
:100920008093FA008AE5809361001092F900888133
:10093000807619F0CE0161DF8BC09A81109203019D
:100940008981811106C01092040123E031E082E028
:100950007BC0853031F49093170123E031E080E0D3
:1009600073C0863009F050C08B81813041F489EA30
:1009700090E0909315018093140182E141C0823090
:1009800041F487E890E0909315018093140182E28E
:1009900037C08330F1F4911108C083EE90E090935A
:1009A00015018093140184E02BC0913041F48FEC49
:1009B00090E0909315018093140184E121C092305E
:1009C000E1F48BEB90E0909315018093140184E1A6
:1009D00017C0813241F489E990E09093150180932A
:1009E000140189E00DC0823251F488E490E09093C4
:1009F0001501809314018FE303C080E001C080E003
:100A000090E49093F90024C0883099F0893031F453
:100A10009093190123E031E080E016C08A3069F03C
:100A20008B3079F48BE48093060123E031E080E0A1
:100A30000BC029E131E081E007C023E031E081E033
:100A400003C023E031E080E03093150120931401CE
:100A50008F3F41F4988199230CF48E8190E8909314
:100A6000F90007C09F81911104C09E81981708F476
:100A7000892F809360000FC08091F90088235CF477
:100A8000CE01FBDE8F3F21F48EE18093610003C035
:100A9000811110926000109216018091610084FF14
:100AA0004CC0809160008F3F09F447C0C82F893047
:100AB00008F0C8E08C1B80936000EAEFF0E09081C2
:100AC00088E889278083CC2309F45AC02091140137
:100AD000309115018091F90086FF10C0ABEFB0E0B6
:100AE000F9018C2F94919D9331968150D9F78FEF16
:100AF0008C0F90E00196280F391F0EC0D901EBEF43
:100B0000F0E08C2F9D9191938150E1F78FEF8C0F46
:100B100090E00196280F391F30931501209314019E
:100B20006C2F8BEF90E011DB64E06C0F6C3018F4ED
:100B30008FEF809360006093610086B38871B9F491
:100B400093E186B38871A1F49150D9F710921701FF
:100B5000109211018091F800813029F418C0F894A6
:100B600069DC789401C0C1E0C093F80010C094E142
:100B7000C1E09111C0E08091F800C813F0CF07C028
:100B80006C2F8BEF90E0E1DA64E06C0FD1CFDF9156
:100B9000CF910895AC9A8BB780628BBFE5E0F1E00E
:0E0BA0008BE481838AE580830895F894FFCF6B
:020BAE00FF5AEC
:00000001FF
