:100000004AC064C07DC062C061C060C05FC05EC0E5
:100010005DC05CC05BC05AC059C058C057C0050124
:100020000906A101050719E029E715002501750159
:1000300095088102950175082565190029658100DB
:10004000C0090222000101008032090400000103FE
:10005000010100092101010001222300070581039C
:1000600008000A1201100100000008DDDD12340052
:1000700001010200011203740069006E0079005F43
:10008000006B00650079000A037A00690061006E68
:1000900000040309040011241FBECFE5D2E0DEBF37
:1000A000CDBF10E0A0E6B0E0E6EEF9E002C00590BA
:1000B0000D92A436B107D9F720E0A4E6B0E001C064
:1000C0001D92AE39B207E1F7D3D28BC499CFA82FD6
:1000D000B92F80E090E041E050EA609530E009C03F
:1000E0002D9182279795879510F084279527305E6C
:1000F000C8F36F5FA8F30895EADF8D939D93089589
:10010000CF93CFB7CF93C395B39BE9F7B39B0BC006
:10011000B39B09C0B39B07C0B39B05C0B39B03C08F
:10012000B39B01C0D5C00F92DF93C0918100DD2742
:10013000C857DF4F012EB39B03C0DF910F90E6CF6E
:100140002F930F931F934F932FEF4F6F06B303FB24
:1001500020F95F933F9350E03BE065C016B3012662
:10016000502953FDC89556B3012703FB25F92F737A
:1001700006B3B1F05027102713FB26F906B2223040
:10018000F0F000C016B3012703FB27F90126502920
:1001900006B22430E8F54F77206816B30000F6CF9A
:1001A00050274F7D206206B2102F000000C006B31A
:1001B00000265029102713FB26F906B2E2CF4F7B09
:1001C00006B3206400C0DACF01265029187106B2A8
:1001D00069F14E7F2160012F16B328C000265029F7
:1001E0004D7F06B22260102F29C0012650294B7F77
:1001F00006B22460012F2DC016B301265029477F77
:100200002860000006B22EC04F7E06B3206130C0C9
:10021000422706B3499300265029102706B24FEF14
:1002200013FB20F9297F16B379F2187159F10126D1
:10023000502906B2012703FB21F9237F06B371F28F
:10024000002650293150D0F006B2102713FB22F9B6
:10025000277E16B351F201265029012703FB06B26F
:1002600023F92F7C49F2000006B3102713FB24F971
:100270000026502906B22F7939F270CF10E21ABF4A
:10028000002719C03B503195C31BD04010E21ABF64
:100290000881033C09F10B34F9F020917F001981AA
:1002A000110F1213EDCF4A81441F093651F10D325F
:1002B00011F0013E29F7009386003F915F914F9125
:1002C0001F910F912F91DF910F90CAB7C5FD1BCFE2
:1002D000CF91CFBFCF91189520918600222369F34B
:1002E00010918400112379F534307AF13093840031
:1002F00020938000109181003BE0311B30938100FE
:1003000024C0009184000130F4F40AE54F7049F4F0
:100310003091620034FD1AC000936200C8E6D0E05C
:1003200019C03091730034FD11C000937300C4E70D
:10033000D0E010C0052710E000C021C0052710E064
:10034000C89508BB14C03AE501C032ED032EC0E0E9
:10035000D0E032E017B31861C39A08B317BB58E175
:1003600020E84FEF20FF052708BB279517951C3F76
:1003700028F700004552B0F720FF0527279508BB56
:1003800017951C3FB8F629913A9561F7077E1091B1
:100390008500110F08BBC250D04011F010937F00B0
:1003A00010E21ABF086017B3177E402F477E54E053
:1003B0005A95F1F708BB17BB48BB7FCFCDD2BB9A8C
:1003C0002FE28BE19FE0215080409040E1F700C098
:1003D0000000BB9878940895FF920F931F93CF93DA
:1003E000DF938C0167D1209187002223D9F32091DC
:1003F000730024FFF7CF80E48093660010926700BB
:1004000062E086E690E035D155D1E8010B5F1F4FE1
:1004100082E6F82E4FD1809187008823D9F380910E
:10042000730084FFF7CFF09267008991882319F059
:10043000885A8093670062E086E690E01AD13AD14C
:1004400039D1809187008823D9F38091730084FF8C
:10045000F7CF1092670062E086E690E00AD12AD1D9
:10046000C017D107B9F626D1809187008823D9F328
:100470008091730084FFF7CF10926600109267009E
:1004800062E086E690E0F5D0DF91CF911F910F9169
:10049000FF9010C1AF92BF92CF92DF92EF92FF9286
:1004A0000F931F93CF93DF9300D000D01F92CDB74F
:1004B000DEB710926000109266001092670080E034
:1004C00090E069D26C01892B11F101E010E03AE073
:1004D000E32EF12C90918700992321F090917300E5
:1004E00094FD02C0E7D0F6CFC801880F991F53D200
:1004F000B82EA82E91114CC081111CC00C151D05E1
:1005000031F00F5F1F4F011581E0180719F781E0E7
:10051000809360000F900F900F900F900F90DF91DD
:10052000CF911F910F91FF90EF90DF90CF90BF90F0
:10053000AF900895BFD0909187009923D9F39091FF
:10054000730094FFF7CFAA1CAA24AA1CA294AA0C99
:1005500080EEA822A09266008B2D8F778093670093
:1005600062E086E690E085D0A5D0A4D09091870087
:100570009923D9F38091730084FFF7CF109266001E
:100580001092670062E086E690E073D093D0B6CF19
:10059000B701EDD18D83CB01B701E9D18C83CB01BC
:1005A000B701E5D18B83CB01B701E1D18A836983A0
:1005B000CE01019611DFA2CFFC0186E690E0909378
:1005C00083008093820090819076903219F190346C
:1005D00011F080E008958181863159F0883091F0E2
:1005E000833019F18130A9F7109260008CB3C19863
:1005F000F0CFE199FECF6281738184819581DED154
:10060000C19AE7CFE199FECF628184819581C8D1FB
:10061000C19ADFCF81819FEF980F9230D0F28A305C
:10062000C1F6838180936400D4CFE199FECFC19855
:1006300081E080936000CDCFB898B99ABA98C09AFB
:10064000C198C29ABBDEC0E0B0990AC0C11104C013
:1006500080916000811109C0CFE12CD0B09BF6CF12
:10066000CC23D9F3C15026D0F9CF14DFCFE1F5CF99
:10067000E3CFCF93C62F2091730024FF17C0309192
:10068000740028E8232720937400FC01A5E7B0E05C
:100690008C2F91919D938150E1F76C2F85E790E02D
:1006A0002BDDCC5FC0937300CF9108952AE5209392
:1006B0007300EBCFCF93DF9380918400835087FD4D
:1006C00008C020918100909180009D3271F11092BC
:1006D00084008091620084FF1BC0609161006F3FC5
:1006E000B9F0693008F04EC0109261009091680036
:1006F00088E88927809368006111A2C060E089E6DC
:1007000090E0FADCD4E08FEF80936100D093620038
:1007100094E186B3887131F49150D9F71092850035
:1007200010927F00DF91CF910895883081F6CCE060
:10073000D0E0C21BD109C857DF4F83EC809368001B
:100740008AE580936200109265008881807609F0C6
:1007500074C09A81109271008981811184C01092B5
:10076000720021E730E082E0309383002093820022
:100770009F81911104C09E81981708F4892F80935E
:100780006100A5CF6850609361009091680088E88F
:100790008927809368004091820050918300809166
:1007A000650086FD3CC0FA0181918093690027E0D5
:1007B00068E0CCE0808180936A002130E1F08181A3
:1007C00080936B002230B9F0828180936C002330DB
:1007D00091F0838180936D00243069F0848180934F
:1007E0006E00253041F0858180936F00263019F02E
:1007F00086818093700030E02F5F3F4FCA01820FE7
:10080000931FDC2F909383008093820089E690E011
:1008100073DCCC3009F077CFD093620079CF68E0F9
:10082000CCE0A9E6B0E0FA01862F94919D93319631
:100830008150D9F72FEF260FDECFCE01BDDE98CF46
:10084000C4E0C60F40918200509183008091650002
:1008500086FDE7CFFA018191809369002FEF260F83
:1008600009F0A8CFC8CF853071F0863039F18830D3
:1008700081F08930B1F08A3081F08B30C1F021E70E
:1008800030E080E071CF9093850021E730E080E098
:100890006BCF27E830E081E067CF21E730E081E0EF
:1008A00063CF9093870021E730E080E05DCF8BE459
:1008B0008093740021E730E080E056CF8B81813057
:1008C00069F0823069F1833009F18132B9F0823206
:1008D00069F080E090E4909365004ACF83E690E071
:1008E000909383008093820082E1F4CF8EE190E0C8
:1008F000909383008093820083E2ECCF83E590E0C5
:10090000909383008093820089E0E4CF911110C01E
:1009100081E990E0909383008093820084E0DACFB5
:1009200081E490E0909383008093820082E2D2CFB2
:10093000913051F0923069F685E790E09093830012
:100940008093820082E1C6CF87E890E09093830095
:10095000809382008AE0BECFAC9A8BB780628BBF57
:10096000E3E7F0E08BE481838AE580830895AA1BA6
:10097000BB1B51E107C0AA1FBB1FA617B70710F08A
:10098000A61BB70B881F991F5A95A9F780959095BC
:10099000BC01CD010895A8E1B0E042E050E013C0F1
:1009A000262FE199FECF1CBA9FBB8EBB2DBB0FB685
:1009B000F894E29AE19A0FBE01960895F1DF272F8D
:1009C000F0CFDC01CB01FC01E199FECF06C0FFBBFB
:1009D000EEBBE09A31960DB20D9241505040B8F7FF
:0609E0000895F894FFCF1A
:0409E60001FF5A00B3
:00000001FF
