:100000006BC085C09EC083C082C081C080C07FC0DD
:100010007EC07DC07CC07BC07AC079C078C0090238
:100020004200020100A032090400000103010100A6
:100030000921011100012223000705810308000A9C
:10004000090401000203000000092101110001223E
:1000500022000705820308000107050303080001C9
:100060001201100100000008DDDD12340001010260
:1000700000011203740069006E0079005F006B00DC
:10008000650079000A037A00690061006E000403CC
:1000900009040631FF0974A1010975150026FF0046
:1000A0009508750881020976150026FF00950875E8
:1000B000089102C005010906A101050719E029E719
:1000C00015002501750195088102950175082565C2
:1000D000190029658100C00011241FBECFE5D2E0C0
:1000E000DEBFCDBF10E0A0E6B0E0EAEEFBE002C06C
:1000F00005900D92A436B107D9F720E0A4E6B0E050
:1001000001C01D92AA3AB207E1F787D16CC578CF3A
:10011000A82FB92F80E090E041E050EA609530E0F0
:1001200009C02D9182279795879510F084279527F0
:10013000305EC8F36F5FA8F30895EADF8D939D9357
:100140000895CF93CFB7CF93C395B39BE9F7B39BF4
:100150000BC0B39B09C0B39B07C0B39B05C0B39B47
:1001600003C0B39B01C0D8C00F92DF93C091810040
:10017000DD27C857DF4F012EB39B03C0DF910F90DF
:10018000E6CF2F930F931F934F932FEF4F6F06B32D
:1001900003FB20F95F933F9350E03BE065C016B34B
:1001A0000126502953FDC89556B3012703FB25F9B5
:1001B0002F7306B3B1F05027102713FB26F906B2B0
:1001C0002230F0F000C016B3012703FB27F9012607
:1001D000502906B22430E8F54F77206816B30000A6
:1001E000F6CF50274F7D206206B2102F000000C0CE
:1001F00006B300265029102713FB26F906B2E2CFDA
:100200004F7B06B3206400C0DACF01265029187155
:1002100006B269F14E7F2160012F16B328C0002677
:1002200050294D7F06B22260102F29C00126502987
:100230004B7F06B22460012F2DC016B30126502932
:10024000477F2860000006B22EC04F7E06B32061B3
:1002500030C0422706B3499300265029102706B222
:100260004FEF13FB20F9297F16B379F2187159F17A
:100270000126502906B2012703FB21F9237F06B38B
:1002800071F2002650293150D0F006B2102713FB2E
:1002900022F9277E16B351F201265029012703FBCC
:1002A00006B223F92F7C49F2000006B3102713FB96
:1002B00024F90026502906B22F7939F270CF10E2C6
:1002C0001ABF00271CC03B503195C31BD04010E221
:1002D0001ABF0881033C21F10B3411F120917F00FA
:1002E0001981110F1213EDCF4A81441F093669F1AC
:1002F0000D3211F0013E29F74F7009F0042F0093E1
:1003000086003F915F914F911F910F912F91DF9147
:100310000F90CAB7C5FD18CFCF91CFBFCF91189519
:1003200020918600222369F3109184001123D1F5D6
:100330003430D2F1309384002093800010918100FA
:100340003BE0311B309381002FC0009184000130CD
:100350004CF50AE54F7049F43091610034FD25C039
:1003600000936100C8E6D0E024C0423049F03091EB
:10037000730034FD1AC000937300C4E7D0E019C0C5
:1003800030919E0034FD11C000939E00CFE9D0E073
:1003900010C0052710E000C021C0052710E0C89557
:1003A00008BB14C03AE501C032ED032EC0E0D0E036
:1003B00032E017B31861C39A08B317BB58E120E8BD
:1003C0004FEF20FF052708BB279517951C3F28F7FF
:1003D00000004552B0F720FF0527279508BB179569
:1003E0001C3FB8F629913A9561F7077E1091850078
:1003F000110F08BBC250D04011F010937F0010E2E3
:100400001ABF086017B3177E402F477E54E05A95F5
:10041000F1F708BB17BB48BB74CFFFC2FC01938147
:10042000923061F108F1913281F09232D9F48481F5
:100430009581009799F10197A9F482E990E0909352
:1004400083008093820082E2089582818823F1F004
:10045000813041F489E490E090938300809382009E
:1004600089E0089580E008959130E1F780E690E01A
:10047000909383008093820082E108958EE190E062
:10048000909383008093820082E4089580E390E05B
:10049000909383008093820089E0089584EB90E03C
:1004A000909383008093820083E20895CF93C62FB8
:1004B0002091730024FF17C03091740028E823278F
:1004C00020937400FC01A5E7B0E08C2F91919D93DF
:1004D0008150E1F76C2F85E790E02FDECC5FC09371
:1004E0007300CF9108952AE520937300EBCFCF934B
:1004F000DF9360918400635067FD13C020918100F9
:100500008CE090E0821B9109EC01C857DF4F80918D
:100510008000803108F489C08D3209F489C01092BE
:1005200084008091610084FF60C0609160006F3F33
:1005300009F45BC0693008F465C0685060936000DE
:100540009091680088E8892780936800CCE068E093
:10055000A0918200B09183008091640086FF90C0DA
:10056000FD0184918093690031968FEF860F09F425
:100570002DC0E491E0936A00FD013296623031F1C2
:10058000E491E0936B00FD0133966330F9F0E49160
:10059000E0936C00FD0134966430C1F0E491E09387
:1005A0006D00FD013596653089F0E491E0936E00B1
:1005B000FD013696663051F0E491E0936F00FD0145
:1005C0003796673019F0E491E093700090E001965F
:1005D000A80FB91FB0938300A093820089E690E032
:1005E000ACDDCC30F1F4C093610094E186B3887146
:1005F00031F49150D9F71092850010927F00DF916D
:10060000CF910895109260009091680088E8892742
:1006100080936800611174C060E089E690E08DDD30
:10062000C4E08FEF80936000DECFCE01A7D177CFFB
:10063000683009F074CF83EC809368008AE580937A
:100640006100109264008881807609F056C09A811A
:10065000109271008981811156C01092720021E7B9
:1006600030E082E030938300209382009F819111DB
:1006700004C09E81981708F4892F809360004FCFA3
:100680008C91809369008FEF860F09F49FCF1196AC
:100690009C91119790936A00623009F497CF12965B
:1006A0009C91129790936B00633009F48FCF13964F
:1006B0009C91139790936C00643009F487CF149643
:1006C0009C91149790936D00653009F47FCF159637
:1006D0009C91159790936E00663009F477CF16962B
:1006E0009C91169790936F00673009F46FCF17961F
:1006F0009C9117979093700069CFCE01F7D0B6CF39
:10070000C4E0C60F25CF853071F0863049F18830BE
:1007100081F0893091F08A30B1F08B30C1F021E75F
:1007200030E080E09FCF9093850021E730E080E0CB
:1007300099CF27E830E081E095CF9093870021E7BB
:1007400030E080E08FCF21E730E081E08BCF8BE499
:100750008093740080939F0021E730E080E082CF97
:100760008B81813069F0823041F18330E1F0813258
:1007700091F0823269F080E090E49093640076CF4B
:1007800080E690E0909383008093820082E1F4CF32
:10079000CE0144DEF1CF80E390E09093830080931C
:1007A000820089E0E9CF911110C08EE890E090932B
:1007B00083008093820084E0DFCF8EE190E090930D
:1007C00083008093820082E4D7CF913051F0923041
:1007D00091F682E790E0909383008093820082E11B
:1007E000CBCF84E890E090938300809382008AE0EE
:1007F000C3CFAC9A8BB780628BBFA3E7B0E08BE42A
:1008000011968C931197EEE9F0E081838AE58C9341
:1008100080830895EEDFBB9A2FE28BE19FE02150A9
:1008200080409040E1F700C00000BB9878940895A4
:10083000FF920F931F93CF93DF938C0158DE80912B
:1008400087008823D9F38091730084FFF7CF80E479
:10085000809366001092670062E086E690E026DEF4
:1008600046DEE8010B5F1F4F82E6F82E40DE8091E6
:1008700087008823D9F38091730084FFF7CFF0922B
:1008800067008991882319F0885A8093670062E095
:1008900086E690E00BDE2BDE2ADE8091870088233F
:1008A000D9F38091730084FFF7CF1092670062E064
:1008B00086E690E0FBDD1BDE0C171D07B9F617DEA0
:1008C000809187008823D9F38091730084FFF7CF4C
:1008D000109266001092670062E086E690E0E6DD26
:1008E000DF91CF911F910F91FF9001CEFC0186E621
:1008F00090E0909383008093820090819076903274
:1009000021F1903411F080E008958181863159F011
:10091000883099F0833021F18130A9F7109262007C
:100920008CB3C198F0CFE199FECF6281738184814D
:10093000958146D1C19A80E00895E199FECF628108
:10094000848195812FD1C19ADECF81818130D9F206
:10095000823069F08A30B9F6838180936500D3CF05
:10096000E199FECFC19881E080936200CCCF85E60B
:1009700090E09093830080938200C5CFEF92FF9226
:100980000F931F93CF93DF93683039F0DF91CF91AE
:100990001F910F91FF90EF900895FC0120812F3F50
:1009A00081F1FC01C19A62817381E480F580068146
:1009B00017812081C22F8181D82FCE3FE1E0DE0751
:1009C00020F4E199FECFCE01FBD0CE0102968E3FFE
:1009D000F1E09F0720F4E199FECFB701F1D0CE01FD
:1009E00004968E3F21E0920720F4E199FECFB801F2
:1009F000E7D0C198DF91CF911F910F91FF90EF90B9
:100A000008952181213F31F0223F59F681E0809302
:100A10006200BCCF10926200B9CFCF93DF9300D0B9
:100A200000D01F92CDB7DEB7B898B998C09AC19AD6
:100A3000F1DE10E03AE0E32EF12C44E6842E912C16
:100A400058EEA52E53E0B52E60E1662E67E2762EB5
:100A5000552453944CDDB0990AC0111104C0809103
:100A60006200811108C01FE142DDB09BF6CF112367
:100A700089F31150EFCF109262001092660010922D
:100A8000670080E090E089D06C01892B01F101E0E2
:100A900010E080918700882321F08091730084FD0D
:100AA00002C025DDF6CFC801880F991F76D0482EE9
:100AB000292F91113EC0382E81110DC0C016D106CC
:100AC00031F00F5F1F4F011581E0180711F75092A9
:100AD00062001FE1C9CF0BDD809187008823D9F325
:100AE0008091730084FFF7CF331C3324331C32947E
:100AF000330C80EE382230926600842D8F778093FD
:100B0000670062E086E690E0D1DCF1DCF0DC809109
:100B100087008823D9F38091730084FFF7CF109268
:100B200066001092670062E086E690E0BFDCDFDCE2
:100B3000C5CFB7011ED08D83CB01B7011AD08C83EE
:100B4000842D922FB40115D0CB01B70112D08B8325
:100B5000842D922FB5010DD0CB01B7010AD08A8325
:100B6000842D922FB30105D06983CE01019660DEFA
:100B7000A5CFAA1BBB1B51E107C0AA1FBB1FA6170D
:100B8000B70710F0A61BB70B881F991F5A95A9F736
:100B900080959095BC01CD010895A8E1B0E042E0B8
:100BA00050E013C0262FE199FECF1CBA9FBB8EBB2D
:100BB0002DBB0FB6F894E29AE19A0FBE0196089504
:100BC000F1DF272FF0CFDC01CB01FC01E199FECF53
:100BD00006C0FFBBEEBBE09A31960DB20D924150BC
:0A0BE0005040B8F70895F894FFCFD5
:040BEA00FF5A0100AD
:00000001FF
