:100000006BC085C09EC083C082C081C080C07FC0DD
:100010007EC07DC07CC07BC07AC079C078C0090238
:100020004200020100A032090400000103010100A6
:100030000921011100012223000705810308000A9C
:10004000090401000203000000092101110001223E
:1000500022000705820308000107050303080001C9
:100060001201100100000008DDDD12340001010260
:1000700000011203740069006E0079005F006B00DC
:10008000650079000A037A00690061006E000403CC
:1000900009040631FF0974A1010975150026FF0046
:1000A0009508750881020976150026FF00950875E8
:1000B000089102C005010906A101050719E029E719
:1000C00015002501750195088102950175082565C2
:1000D000190029658100C00011241FBECFE5D2E0C0
:1000E000DEBFCDBF10E0A0E6B0E0ECE6F8E002C075
:1000F00005900D92A436B107D9F720E0A4E6B0E050
:1001000001C01D92AA3AB207E1F787D1ADC378CFFB
:10011000A82FB92F80E090E041E050EA609530E0F0
:1001200009C02D9182279795879510F084279527F0
:10013000305EC8F36F5FA8F30895EADF8D939D9357
:100140000895CF93CFB7CF93C395B39BE9F7B39BF4
:100150000BC0B39B09C0B39B07C0B39B05C0B39B47
:1001600003C0B39B01C0D8C00F92DF93C091810040
:10017000DD27C857DF4F012EB39B03C0DF910F90DF
:10018000E6CF2F930F931F934F932FEF4F6F06B32D
:1001900003FB20F95F933F9350E03BE065C016B34B
:1001A0000126502953FDC89556B3012703FB25F9B5
:1001B0002F7306B3B1F05027102713FB26F906B2B0
:1001C0002230F0F000C016B3012703FB27F9012607
:1001D000502906B22430E8F54F77206816B30000A6
:1001E000F6CF50274F7D206206B2102F000000C0CE
:1001F00006B300265029102713FB26F906B2E2CFDA
:100200004F7B06B3206400C0DACF01265029187155
:1002100006B269F14E7F2160012F16B328C0002677
:1002200050294D7F06B22260102F29C00126502987
:100230004B7F06B22460012F2DC016B30126502932
:10024000477F2860000006B22EC04F7E06B32061B3
:1002500030C0422706B3499300265029102706B222
:100260004FEF13FB20F9297F16B379F2187159F17A
:100270000126502906B2012703FB21F9237F06B38B
:1002800071F2002650293150D0F006B2102713FB2E
:1002900022F9277E16B351F201265029012703FBCC
:1002A00006B223F92F7C49F2000006B3102713FB96
:1002B00024F90026502906B22F7939F270CF10E2C6
:1002C0001ABF00271CC03B503195C31BD04010E221
:1002D0001ABF0881033C21F10B3411F120917F00FA
:1002E0001981110F1213EDCF4A81441F093669F1AC
:1002F0000D3211F0013E29F74F7009F0042F0093E1
:1003000086003F915F914F911F910F912F91DF9147
:100310000F90CAB7C5FD18CFCF91CFBFCF91189519
:1003200020918600222369F3109184001123D1F5D6
:100330003430D2F1309384002093800010918100FA
:100340003BE0311B309381002FC0009184000130CD
:100350004CF50AE54F7049F43091610034FD25C039
:1003600000936100C8E6D0E024C0423049F03091EB
:10037000730034FD1AC000937300C4E7D0E019C0C5
:1003800030919E0034FD11C000939E00CFE9D0E073
:1003900010C0052710E000C021C0052710E0C89557
:1003A00008BB14C03AE501C032ED032EC0E0D0E036
:1003B00032E017B31861C39A08B317BB58E120E8BD
:1003C0004FEF20FF052708BB279517951C3F28F7FF
:1003D00000004552B0F720FF0527279508BB179569
:1003E0001C3FB8F629913A9561F7077E1091850078
:1003F000110F08BBC250D04011F010937F0010E2E3
:100400001ABF086017B3177E402F477E54E05A95F5
:10041000F1F708BB17BB48BB74CF00C2FC01938146
:10042000923081F050F49130D9F580E690E09093CD
:1004300083008093820082E10895913259F09232D4
:10044000C9F02EC08EE190E09093830080938200EB
:1004500082E408958281882329F0813009F589E4B6
:1004600090E002C080E390E090938300809382004C
:1004700089E0089584819581009751F0019781F476
:1004800082E990E0909383008093820082E2089555
:1004900084EB90E0909383008093820083E2089540
:1004A00080E00895CF93DF9360918400635067FDEF
:1004B000CFC080918100CCE0D0E0C81BD109C857E3
:1004C000DF4F80918000803118F4CE0160D1BEC032
:1004D0008D3209F0BBC0683009F0B8C083EC80935E
:1004E00068008AE580936100109264002881822F61
:1004F000807619F0CE0126D1A0C09A813C8110925D
:1005000071008981811113C02F71223051F431386B
:1005100041F49091730081E09E3109F080E0809376
:1005200071001092720021E730E082E082C0282F33
:100530002D7F213091F4911179C0313809F076C0C6
:10054000813011F08EE101C08AE5809373008BE465
:100550008093740080939F0069C0853019F4909354
:10056000850064C0863009F044C08B81813019F465
:1005700080E690E024C0823041F48EE190E09093D8
:1005800083008093820082E430C08330F1F49111C3
:1005900008C08EE890E0909383008093820084E00E
:1005A00024C0913041F484E890E0909383008093DC
:1005B00082008AE01AC09230B9F482E790E090930A
:1005C00083008093820082E110C0813241F480E395
:1005D00090E0909383008093820089E006C082328D
:1005E00019F4CE011BDF01C080E090E49093640019
:1005F00024C08830A1F0893019F49093870009C095
:100600008A3081F08B3091F48BE480937400809376
:100610009F008AE58093730080939E0007C027E8BF
:1006200030E002C021E730E081E003C021E730E0A4
:1006300080E030938300209382009F81911104C059
:100640009E81981708F4892F80936000109284008F
:100650008091610084FF45C0809160008F3F09F464
:1006600040C0C82F893008F0C8E08C1B8093600020
:100670009091680088E8892780936800CC2329F14D
:1006800080918200909183002091640026FF0AC02F
:10069000A9E6B0E0FC012C2F34913D933196215016
:1006A000D9F708C0DC01E9E6F0E02C2F3D91319349
:1006B0002150E1F72FEF2C0F30E02F5F3F4F820FDB
:1006C000931F90938300809382006C2F89E690E0C3
:1006D00034DDCC5FCC3019F08FEF80936000C09395
:1006E000610084E196B3987159F48150D9F7109262
:1006F000850010927F008AE58093730080939E00AE
:10070000DF91CF910895AC9A8BB780628BBFA3E73E
:10071000B0E08BE411968C931197EEE9F0E08183C1
:100720008AE58C9380830895EEDFBB9A2FE28BE1FC
:100730009FE0215080409040E1F700C00000BB984E
:1007400078940895FC01808180768032F1F4918163
:10075000913041F486E690E090938300809382008C
:1007600082E00895993079F0923039F485E690E08E
:10077000909383008093820008C09A3031F4838183
:100780008093650002C08FEF089580E00895EF9296
:10079000FF920F931F93CF93DF93FC016830B9F55D
:1007A00080818F3F61F48181813F19F41092620052
:1007B0002EC0823F21F481E08093620028C0C19A5C
:1007C00062817381E480F580068117812081C22FC8
:1007D0008181D82FCE3F21E0D20720F4E199FECFCE
:1007E000CE0131D0CE0102968E3F21E0920720F457
:1007F000E199FECFB70127D0CE0104968E3F21E0CC
:10080000920720F4E199FECFB8011DD0C198DF9185
:10081000CF911F910F91FF90EF900895B898B998DC
:10082000C09AC19A81DFC0E03DDEB09908C0C11115
:1008300008C0809162008823B9F3C0E202C0CC23D3
:1008400099F3C150F1CF02D0272F01C0262FE19993
:10085000FECF1CBA9FBB8EBB2DBB0FB6F894E29A9D
:0C086000E19A0FBE01960895F894FFCFB6
:04086C00FF5A01002E
:00000001FF
